{
  "contractName": "Clone",
  "abi": [
    {
      "constant": true,
      "inputs": [],
      "name": "blockInitialized",
      "outputs": [
        {
          "name": "",
          "type": "uint256"
        }
      ],
      "payable": false,
      "stateMutability": "view",
      "type": "function"
    },
    {
      "constant": true,
      "inputs": [],
      "name": "cloneFactory",
      "outputs": [
        {
          "name": "",
          "type": "address"
        }
      ],
      "payable": false,
      "stateMutability": "view",
      "type": "function"
    }
  ],
  "bytecode": "0x608060405234801561001057600080fd5b5060f28061001f6000396000f3fe6080604052348015600f57600080fd5b506004361060325760003560e01c80639bc40c4c146037578063a064f9a1146053575b600080fd5b603d609b565b6040518082815260200191505060405180910390f35b605960a1565b604051808273ffffffffffffffffffffffffffffffffffffffff1673ffffffffffffffffffffffffffffffffffffffff16815260200191505060405180910390f35b60015481565b6000809054906101000a900473ffffffffffffffffffffffffffffffffffffffff168156fea165627a7a723058208c5e429acb2504f46bc9e2931325f5fe7e209a4175629c5ddcd94855944338e00029",
  "source": "pragma solidity ^0.5.0;\n\nimport \"./CloneFactory.sol\";\n\ncontract Clone {\n\n  CloneFactory public cloneFactory;\n\n  uint public blockInitialized;\n\n  modifier requireNotInitialized () {\n    require(blockInitialized == 0);\n    cloneFactory = CloneFactory(msg.sender);\n    _;\n    blockInitialized = block.number;\n  }\n\n}\n",
  "sourcePath": "/home/joe/Documents/git/chicobitcoinjoe/delegated-wallet/contracts/external/Clone.sol",
  "compiler": {
    "name": "solc",
    "version": "0.5.8+commit.23d335f2.Emscripten.clang"
  },
  "schemaVersion": "3.0.16",
  "updatedAt": "2019-11-06T21:47:41.955Z",
  "devdoc": {
    "methods": {}
  },
  "userdoc": {
    "methods": {}
  }
}