{
  "contractName": "DelegatedWalletManager",
  "abi": [
    {
      "constant": true,
      "inputs": [],
      "name": "blockCreated",
      "outputs": [
        {
          "name": "",
          "type": "uint256"
        }
      ],
      "payable": false,
      "stateMutability": "view",
      "type": "function"
    },
    {
      "inputs": [],
      "payable": false,
      "stateMutability": "nonpayable",
      "type": "constructor"
    },
    {
      "anonymous": false,
      "inputs": [
        {
          "indexed": true,
          "name": "owner",
          "type": "address"
        },
        {
          "indexed": false,
          "name": "wallet",
          "type": "address"
        }
      ],
      "name": "AddWallet_event",
      "type": "event"
    },
    {
      "anonymous": false,
      "inputs": [
        {
          "indexed": true,
          "name": "owner",
          "type": "address"
        },
        {
          "indexed": false,
          "name": "wallet",
          "type": "address"
        }
      ],
      "name": "RemoveWallet_event",
      "type": "event"
    },
    {
      "constant": false,
      "inputs": [
        {
          "name": "factory",
          "type": "address"
        },
        {
          "name": "delegates",
          "type": "address[]"
        }
      ],
      "name": "createWallet",
      "outputs": [
        {
          "name": "wallet",
          "type": "address"
        }
      ],
      "payable": true,
      "stateMutability": "payable",
      "type": "function"
    },
    {
      "constant": false,
      "inputs": [
        {
          "name": "wallet",
          "type": "address"
        }
      ],
      "name": "addWallet",
      "outputs": [
        {
          "name": "success",
          "type": "bool"
        }
      ],
      "payable": false,
      "stateMutability": "nonpayable",
      "type": "function"
    },
    {
      "constant": false,
      "inputs": [
        {
          "name": "wallet",
          "type": "address"
        }
      ],
      "name": "removeWallet",
      "outputs": [
        {
          "name": "success",
          "type": "bool"
        }
      ],
      "payable": false,
      "stateMutability": "nonpayable",
      "type": "function"
    },
    {
      "constant": false,
      "inputs": [
        {
          "name": "walletList",
          "type": "address[]"
        }
      ],
      "name": "addWallets",
      "outputs": [],
      "payable": false,
      "stateMutability": "nonpayable",
      "type": "function"
    },
    {
      "constant": false,
      "inputs": [
        {
          "name": "walletList",
          "type": "address[]"
        }
      ],
      "name": "removeWallets",
      "outputs": [],
      "payable": false,
      "stateMutability": "nonpayable",
      "type": "function"
    },
    {
      "constant": true,
      "inputs": [
        {
          "name": "account",
          "type": "address"
        }
      ],
      "name": "getWallets",
      "outputs": [
        {
          "name": "",
          "type": "address[]"
        }
      ],
      "payable": false,
      "stateMutability": "view",
      "type": "function"
    },
    {
      "constant": true,
      "inputs": [
        {
          "name": "account",
          "type": "address"
        }
      ],
      "name": "totalWallets",
      "outputs": [
        {
          "name": "",
          "type": "uint256"
        }
      ],
      "payable": false,
      "stateMutability": "view",
      "type": "function"
    },
    {
      "constant": true,
      "inputs": [
        {
          "name": "account",
          "type": "address"
        },
        {
          "name": "wallet",
          "type": "address"
        }
      ],
      "name": "contains",
      "outputs": [
        {
          "name": "",
          "type": "bool"
        }
      ],
      "payable": false,
      "stateMutability": "view",
      "type": "function"
    },
    {
      "constant": true,
      "inputs": [
        {
          "name": "account",
          "type": "address"
        },
        {
          "name": "i",
          "type": "uint256"
        }
      ],
      "name": "getWalletAt",
      "outputs": [
        {
          "name": "",
          "type": "address"
        }
      ],
      "payable": false,
      "stateMutability": "view",
      "type": "function"
    },
    {
      "constant": true,
      "inputs": [
        {
          "name": "account",
          "type": "address"
        },
        {
          "name": "wallet",
          "type": "address"
        }
      ],
      "name": "getIndexOf",
      "outputs": [
        {
          "name": "",
          "type": "uint256"
        }
      ],
      "payable": false,
      "stateMutability": "view",
      "type": "function"
    }
  ],
  "bytecode": "0x608060405234801561001057600080fd5b5043600081905550611153806100276000396000f3fe60806040526004361061009c5760003560e01c80634e989a4c116100645780634e989a4c14610424578063a75fe8e11461044f578063a89592a6146104b8578063ec7f82f71461053d578063ed26cae814610602578063efeb5f1f1461068b5761009c565b80631a244e7c146100a15780632d0bb75b146101b957806333dccbbc14610254578063422c29a4146102b95780634ad9b1c31461035f575b600080fd5b610177600480360360408110156100b757600080fd5b81019080803573ffffffffffffffffffffffffffffffffffffffff169060200190929190803590602001906401000000008111156100f457600080fd5b82018360208201111561010657600080fd5b8035906020019184602083028401116401000000008311171561012857600080fd5b919080806020026020016040519081016040528093929190818152602001838360200280828437600081840152601f19601f8201169050808301925050505050505091929192905050506106f4565b604051808273ffffffffffffffffffffffffffffffffffffffff1673ffffffffffffffffffffffffffffffffffffffff16815260200191505060405180910390f35b3480156101c557600080fd5b50610212600480360360408110156101dc57600080fd5b81019080803573ffffffffffffffffffffffffffffffffffffffff16906020019092919080359060200190929190505050610892565b604051808273ffffffffffffffffffffffffffffffffffffffff1673ffffffffffffffffffffffffffffffffffffffff16815260200191505060405180910390f35b34801561026057600080fd5b506102a36004803603602081101561027757600080fd5b81019080803573ffffffffffffffffffffffffffffffffffffffff16906020019092919050505061096e565b6040518082815260200191505060405180910390f35b3480156102c557600080fd5b50610308600480360360208110156102dc57600080fd5b81019080803573ffffffffffffffffffffffffffffffffffffffff169060200190929190505050610a41565b6040518080602001828103825283818151815260200191508051906020019060200280838360005b8381101561034b578082015181840152602081019050610330565b505050509050019250505060405180910390f35b34801561036b57600080fd5b506104226004803603602081101561038257600080fd5b810190808035906020019064010000000081111561039f57600080fd5b8201836020820111156103b157600080fd5b803590602001918460208302840111640100000000831117156103d357600080fd5b919080806020026020016040519081016040528093929190818152602001838360200280828437600081840152601f19601f820116905080830192505050505050509192919290505050610b6a565b005b34801561043057600080fd5b50610439610ba7565b6040518082815260200191505060405180910390f35b34801561045b57600080fd5b5061049e6004803603602081101561047257600080fd5b81019080803573ffffffffffffffffffffffffffffffffffffffff169060200190929190505050610bad565b604051808215151515815260200191505060405180910390f35b3480156104c457600080fd5b50610527600480360360408110156104db57600080fd5b81019080803573ffffffffffffffffffffffffffffffffffffffff169060200190929190803573ffffffffffffffffffffffffffffffffffffffff169060200190929190505050610d35565b6040518082815260200191505060405180910390f35b34801561054957600080fd5b506106006004803603602081101561056057600080fd5b810190808035906020019064010000000081111561057d57600080fd5b82018360208201111561058f57600080fd5b803590602001918460208302840111640100000000831117156105b157600080fd5b919080806020026020016040519081016040528093929190818152602001838360200280828437600081840152601f19601f820116905080830192505050505050509192919290505050610e3d565b005b34801561060e57600080fd5b506106716004803603604081101561062557600080fd5b81019080803573ffffffffffffffffffffffffffffffffffffffff169060200190929190803573ffffffffffffffffffffffffffffffffffffffff169060200190929190505050610e7a565b604051808215151515815260200191505060405180910390f35b34801561069757600080fd5b506106da600480360360208110156106ae57600080fd5b81019080803573ffffffffffffffffffffffffffffffffffffffff169060200190929190505050610f82565b604051808215151515815260200191505060405180910390f35b60008273ffffffffffffffffffffffffffffffffffffffff16631a244e7c3433856040518463ffffffff1660e01b8152600401808373ffffffffffffffffffffffffffffffffffffffff1673ffffffffffffffffffffffffffffffffffffffff16815260200180602001828103825283818151815260200191508051906020019060200280838360005b8381101561079957808201518184015260208101905061077e565b5050505090500193505050506020604051808303818588803b1580156107be57600080fd5b505af11580156107d2573d6000803e3d6000fd5b50505050506040513d60208110156107e957600080fd5b81019080805190602001909291905050509050600073ffffffffffffffffffffffffffffffffffffffff168173ffffffffffffffffffffffffffffffffffffffff161415610882576040517f08c379a00000000000000000000000000000000000000000000000000000000081526004018080602001828103825260248152602001806111046024913960400191505060405180910390fd5b61088b81610f82565b5092915050565b6000600160008473ffffffffffffffffffffffffffffffffffffffff1673ffffffffffffffffffffffffffffffffffffffff16815260200190815260200160002073__AddressListLib________________________63033941c19091846040518363ffffffff1660e01b8152600401808381526020018281526020019250505060206040518083038186803b15801561092b57600080fd5b505af415801561093f573d6000803e3d6000fd5b505050506040513d602081101561095557600080fd5b8101908080519060200190929190505050905092915050565b6000600160008373ffffffffffffffffffffffffffffffffffffffff1673ffffffffffffffffffffffffffffffffffffffff16815260200190815260200160002073__AddressListLib________________________631ecb748690916040518263ffffffff1660e01b81526004018082815260200191505060206040518083038186803b1580156109ff57600080fd5b505af4158015610a13573d6000803e3d6000fd5b505050506040513d6020811015610a2957600080fd5b81019080805190602001909291905050509050919050565b6060600160008373ffffffffffffffffffffffffffffffffffffffff1673ffffffffffffffffffffffffffffffffffffffff16815260200190815260200160002073__AddressListLib________________________636146e87890916040518263ffffffff1660e01b81526004018082815260200191505060006040518083038186803b158015610ad257600080fd5b505af4158015610ae6573d6000803e3d6000fd5b505050506040513d6000823e3d601f19601f820116820180604052506020811015610b1057600080fd5b810190808051640100000000811115610b2857600080fd5b82810190506020810184811115610b3e57600080fd5b8151856020820283011164010000000082111715610b5b57600080fd5b50509291905050509050919050565b60008090505b8151811015610ba357610b95828281518110610b8857fe5b6020026020010151610f82565b508080600101915050610b70565b5050565b60005481565b6000600160003373ffffffffffffffffffffffffffffffffffffffff1673ffffffffffffffffffffffffffffffffffffffff16815260200190815260200160002073__AddressListLib________________________636c11a8a39091846040518363ffffffff1660e01b8152600401808381526020018273ffffffffffffffffffffffffffffffffffffffff1673ffffffffffffffffffffffffffffffffffffffff1681526020019250505060206040518083038186803b158015610c7257600080fd5b505af4158015610c86573d6000803e3d6000fd5b505050506040513d6020811015610c9c57600080fd5b810190808051906020019092919050505090508015610d30573373ffffffffffffffffffffffffffffffffffffffff167fc271a19d5cf9958aaacae360c3870c2847dc24d02f03a6a2889a0fcfacf46e0683604051808273ffffffffffffffffffffffffffffffffffffffff1673ffffffffffffffffffffffffffffffffffffffff16815260200191505060405180910390a25b919050565b6000600160008473ffffffffffffffffffffffffffffffffffffffff1673ffffffffffffffffffffffffffffffffffffffff16815260200190815260200160002073__AddressListLib________________________63ab5f89a49091846040518363ffffffff1660e01b8152600401808381526020018273ffffffffffffffffffffffffffffffffffffffff1673ffffffffffffffffffffffffffffffffffffffff1681526020019250505060206040518083038186803b158015610dfa57600080fd5b505af4158015610e0e573d6000803e3d6000fd5b505050506040513d6020811015610e2457600080fd5b8101908080519060200190929190505050905092915050565b60008090505b8151811015610e7657610e68828281518110610e5b57fe5b6020026020010151610bad565b508080600101915050610e43565b5050565b6000600160008473ffffffffffffffffffffffffffffffffffffffff1673ffffffffffffffffffffffffffffffffffffffff16815260200190815260200160002073__AddressListLib________________________631a65cb959091846040518363ffffffff1660e01b8152600401808381526020018273ffffffffffffffffffffffffffffffffffffffff1673ffffffffffffffffffffffffffffffffffffffff1681526020019250505060206040518083038186803b158015610f3f57600080fd5b505af4158015610f53573d6000803e3d6000fd5b505050506040513d6020811015610f6957600080fd5b8101908080519060200190929190505050905092915050565b6000600160003373ffffffffffffffffffffffffffffffffffffffff1673ffffffffffffffffffffffffffffffffffffffff16815260200190815260200160002073__AddressListLib________________________6390c158cb9091846040518363ffffffff1660e01b8152600401808381526020018273ffffffffffffffffffffffffffffffffffffffff1673ffffffffffffffffffffffffffffffffffffffff1681526020019250505060206040518083038186803b15801561104757600080fd5b505af415801561105b573d6000803e3d6000fd5b505050506040513d602081101561107157600080fd5b810190808051906020019092919050505090503373ffffffffffffffffffffffffffffffffffffffff167ff9fe8c8f6812279aad6b2f8051214c6a19512a6af9fe0a1a821c0e96b11c199583604051808273ffffffffffffffffffffffffffffffffffffffff1673ffffffffffffffffffffffffffffffffffffffff16815260200191505060405180910390a291905056fe77616c6c6574206661696c656420746f206465706c6f792066726f6d20666163746f7279a165627a7a72305820f6b6767a453b9cb1c6ae10ef69bed1fcc94dc65a8708cbbb008503fad2eb95ff0029",
  "source": "pragma solidity ^0.5.0;\n\nimport \"./external/AddressListLib.sol\";\nimport \"./Interfaces.sol\";\n\n/// @title DelegatedWalletManager Contract\n/// @author Joseph Reed\n/// @dev This contract's goal is to make it easy for anyone to manage new and existing delegated wallets\ncontract DelegatedWalletManager is IDelegatedWalletManager {\n\n    using AddressListLib for AddressListLib.AddressList; // Import the data structure AddressList from the AddressListLib contract\n\n    uint public blockCreated; // The block the factory was deployed\n\n    mapping (address => AddressListLib.AddressList) wallets;   // The list of wallets added by each account\n\n    /// @notice Constructor to create a DelegatedWalletManager\n    constructor () public {\n        blockCreated = block.number;\n    }\n\n    /// @notice Adds a wallet to the account list.\n    /// @param factory The delegated wallet is deployed from the provided 'factory'\n    /// @param delegates A list of predefined delegates to add to the wallet\n    /// @return True if the wallet was successfully created\n    function createWallet (IDelegatedWalletFactory factory, address[] memory delegates) public payable returns (IDelegatedWallet wallet) {\n        wallet = factory.createWallet.value(msg.value)(msg.sender, delegates);\n        require(address(wallet) != address(0x0), \"wallet failed to deploy from factory\");\n        addWallet(wallet);\n    }\n\n    /// @notice Adds a wallet to the account list.\n    /// @param wallet The delegated wallet to add to the account list\n    /// @return True if the wallet was successfully added\n    function addWallet (IDelegatedWallet wallet) public returns (bool success) {\n        success = wallets[msg.sender].add(address(wallet));\n        emit AddWallet_event(msg.sender, address(wallet));\n    }\n\n    /// @notice Removes a wallet from the account list.\n    /// @param wallet The delegated wallet to remove from the account list\n    /// @return True if the wallet was successfully removed\n    function removeWallet (IDelegatedWallet wallet) public returns (bool success) {\n        success = wallets[msg.sender].remove(address(wallet));\n        if(success)\n            emit RemoveWallet_event(msg.sender, address(wallet));\n    }\n\n    /// @notice Adds a wallet to the account list.\n    /// @param walletList The delegated wallet to add to the account list\n    /// @return True if the wallet was successfully added\n    function addWallets (IDelegatedWallet[] memory walletList) public {\n        for (uint i = 0; i < walletList.length; i++) {\n            addWallet(walletList[i]);\n        }\n    }\n\n    /// @notice Removes a wallet from the account list.\n    /// @param walletList The delegated wallet to remove from the account list\n    /// @return True if the wallet was successfully removed\n    function removeWallets (IDelegatedWallet[] memory walletList) public {\n        for (uint i = 0; i < walletList.length; i++) {\n            removeWallet(walletList[i]);\n        }\n    }\n\n    /// @notice Fetches a wallet list from a given account.\n    /// @param account The given account from which to fetch the wallet list\n    /// @return an address array of wallets owned by 'account'\n    function getWallets (address account) public view returns (address[] memory) {\n        return wallets[account].getList();\n    }\n\n    /// @notice Fetches a how many wallets are in the list from a given account.\n    /// @param account The given account from which to fetch the wallet list\n    /// @return the total number of wallets\n    function totalWallets (address account) public view returns (uint) {\n        return wallets[account].getLength();\n    }\n\n    /// @notice Shows if a wallet exists in the wallet list from a given account.\n    /// @param account The given account to check\n    /// @param wallet The given wallet to check for\n    /// @return True if the given wallet exists an accounts wallet list\n    function contains (address account, IDelegatedWallet wallet) public view returns (bool) {\n        return wallets[account].contains(address(wallet));\n    }\n\n    /// @notice Fetches the wallet at index 'i' from the 'account' wallet list\n    /// @param account The given account to check\n    /// @param i The index to check\n    /// @return The wallet address that exists at index 'i' in the 'account' wallet list\n    function getWalletAt (address account, uint i) public view returns (IDelegatedWallet) {\n        return IDelegatedWallet(address(uint160(wallets[account].getValueAt(i))));\n    }\n\n    /// @notice Fetches the index of a given 'wallet' from a given 'account' wallet list\n    /// @param account The given account to check\n    /// @param wallet The given wallet to check\n    /// @return The current index of 'wallet' in 'account' wallet list\n    function getIndexOf (address account, IDelegatedWallet wallet) public view returns (uint) {\n        return wallets[account].getIndexOf(address(wallet));\n    }\n\n    event AddWallet_event(address indexed owner, address wallet);\n    event RemoveWallet_event(address indexed owner, address wallet);\n\n}\n",
  "sourcePath": "/home/joe/Documents/git/chicobitcoinjoe/delegated-wallet/contracts/DelegatedWalletManager.sol",
  "compiler": {
    "name": "solc",
    "version": "0.5.8+commit.23d335f2.Emscripten.clang"
  },
  "schemaVersion": "3.0.16",
  "updatedAt": "2019-11-06T21:50:29.758Z",
  "devdoc": {
    "author": "Joseph Reed",
    "details": "This contract's goal is to make it easy for anyone to manage new and existing delegated wallets",
    "methods": {
      "addWallet(address)": {
        "params": {
          "wallet": "The delegated wallet to add to the account list"
        },
        "return": "True if the wallet was successfully added"
      },
      "addWallets(address[])": {
        "params": {
          "walletList": "The delegated wallet to add to the account list"
        },
        "return": "True if the wallet was successfully added"
      },
      "contains(address,address)": {
        "params": {
          "account": "The given account to check",
          "wallet": "The given wallet to check for"
        },
        "return": "True if the given wallet exists an accounts wallet list"
      },
      "createWallet(address,address[])": {
        "params": {
          "delegates": "A list of predefined delegates to add to the wallet",
          "factory": "The delegated wallet is deployed from the provided 'factory'"
        },
        "return": "True if the wallet was successfully created"
      },
      "getIndexOf(address,address)": {
        "params": {
          "account": "The given account to check",
          "wallet": "The given wallet to check"
        },
        "return": "The current index of 'wallet' in 'account' wallet list"
      },
      "getWalletAt(address,uint256)": {
        "params": {
          "account": "The given account to check",
          "i": "The index to check"
        },
        "return": "The wallet address that exists at index 'i' in the 'account' wallet list"
      },
      "getWallets(address)": {
        "params": {
          "account": "The given account from which to fetch the wallet list"
        },
        "return": "an address array of wallets owned by 'account'"
      },
      "removeWallet(address)": {
        "params": {
          "wallet": "The delegated wallet to remove from the account list"
        },
        "return": "True if the wallet was successfully removed"
      },
      "removeWallets(address[])": {
        "params": {
          "walletList": "The delegated wallet to remove from the account list"
        },
        "return": "True if the wallet was successfully removed"
      },
      "totalWallets(address)": {
        "params": {
          "account": "The given account from which to fetch the wallet list"
        },
        "return": "the total number of wallets"
      }
    },
    "title": "DelegatedWalletManager Contract"
  },
  "userdoc": {
    "methods": {
      "addWallet(address)": {
        "notice": "Adds a wallet to the account list."
      },
      "addWallets(address[])": {
        "notice": "Adds a wallet to the account list."
      },
      "constructor": "Constructor to create a DelegatedWalletManager",
      "contains(address,address)": {
        "notice": "Shows if a wallet exists in the wallet list from a given account."
      },
      "createWallet(address,address[])": {
        "notice": "Adds a wallet to the account list."
      },
      "getIndexOf(address,address)": {
        "notice": "Fetches the index of a given 'wallet' from a given 'account' wallet list"
      },
      "getWalletAt(address,uint256)": {
        "notice": "Fetches the wallet at index 'i' from the 'account' wallet list"
      },
      "getWallets(address)": {
        "notice": "Fetches a wallet list from a given account."
      },
      "removeWallet(address)": {
        "notice": "Removes a wallet from the account list."
      },
      "removeWallets(address[])": {
        "notice": "Removes a wallet from the account list."
      },
      "totalWallets(address)": {
        "notice": "Fetches a how many wallets are in the list from a given account."
      }
    }
  }
}