{
  "contractName": "Delegated",
  "abi": [
    {
      "constant": true,
      "inputs": [],
      "name": "owner",
      "outputs": [
        {
          "name": "",
          "type": "address"
        }
      ],
      "payable": false,
      "stateMutability": "view",
      "type": "function"
    },
    {
      "constant": false,
      "inputs": [
        {
          "name": "_newOwner",
          "type": "address"
        }
      ],
      "name": "transferOwnership",
      "outputs": [],
      "payable": false,
      "stateMutability": "nonpayable",
      "type": "function"
    },
    {
      "anonymous": false,
      "inputs": [
        {
          "indexed": false,
          "name": "delegate",
          "type": "address"
        }
      ],
      "name": "AddDelegate_event",
      "type": "event"
    },
    {
      "anonymous": false,
      "inputs": [
        {
          "indexed": false,
          "name": "delegate",
          "type": "address"
        }
      ],
      "name": "RemoveDelegate_event",
      "type": "event"
    },
    {
      "constant": false,
      "inputs": [
        {
          "name": "delegate",
          "type": "address"
        }
      ],
      "name": "addDelegate",
      "outputs": [
        {
          "name": "success",
          "type": "bool"
        }
      ],
      "payable": false,
      "stateMutability": "nonpayable",
      "type": "function"
    },
    {
      "constant": false,
      "inputs": [
        {
          "name": "delegate",
          "type": "address"
        }
      ],
      "name": "removeDelegate",
      "outputs": [
        {
          "name": "success",
          "type": "bool"
        }
      ],
      "payable": false,
      "stateMutability": "nonpayable",
      "type": "function"
    },
    {
      "constant": false,
      "inputs": [
        {
          "name": "delegateList",
          "type": "address[]"
        }
      ],
      "name": "addDelegates",
      "outputs": [],
      "payable": false,
      "stateMutability": "nonpayable",
      "type": "function"
    },
    {
      "constant": false,
      "inputs": [
        {
          "name": "delegateList",
          "type": "address[]"
        }
      ],
      "name": "removeDelegates",
      "outputs": [],
      "payable": false,
      "stateMutability": "nonpayable",
      "type": "function"
    },
    {
      "constant": true,
      "inputs": [
        {
          "name": "account",
          "type": "address"
        }
      ],
      "name": "isDelegate",
      "outputs": [
        {
          "name": "",
          "type": "bool"
        }
      ],
      "payable": false,
      "stateMutability": "view",
      "type": "function"
    },
    {
      "constant": true,
      "inputs": [],
      "name": "getDelegateList",
      "outputs": [
        {
          "name": "",
          "type": "address[]"
        }
      ],
      "payable": false,
      "stateMutability": "view",
      "type": "function"
    },
    {
      "constant": true,
      "inputs": [],
      "name": "totalDelegates",
      "outputs": [
        {
          "name": "",
          "type": "uint256"
        }
      ],
      "payable": false,
      "stateMutability": "view",
      "type": "function"
    },
    {
      "constant": true,
      "inputs": [
        {
          "name": "i",
          "type": "uint256"
        }
      ],
      "name": "getDelegateAt",
      "outputs": [
        {
          "name": "",
          "type": "address"
        }
      ],
      "payable": false,
      "stateMutability": "view",
      "type": "function"
    },
    {
      "constant": true,
      "inputs": [
        {
          "name": "delegate",
          "type": "address"
        }
      ],
      "name": "getIndexOf",
      "outputs": [
        {
          "name": "",
          "type": "uint256"
        }
      ],
      "payable": false,
      "stateMutability": "view",
      "type": "function"
    }
  ],
  "bytecode": "0x6080604052336000806101000a81548173ffffffffffffffffffffffffffffffffffffffff021916908373ffffffffffffffffffffffffffffffffffffffff160217905550610de6806100536000396000f3fe608060405234801561001057600080fd5b50600436106100a95760003560e01c80637712a37d116100715780637712a37d146102d55780638da5cb5b14610343578063a5551bee1461038d578063e71bdf41146103ab578063eb70037314610407578063f2fde38b146104bf576100a9565b8063017df522146100ae578063077796271461010657806340ce08b61461016257806367e7646f146101c1578063747235551461021d575b600080fd5b6100f0600480360360208110156100c457600080fd5b81019080803573ffffffffffffffffffffffffffffffffffffffff169060200190929190505050610503565b6040518082815260200191505060405180910390f35b6101486004803603602081101561011c57600080fd5b81019080803573ffffffffffffffffffffffffffffffffffffffff1690602001909291905050506105cd565b604051808215151515815260200191505060405180910390f35b61016a610697565b6040518080602001828103825283818151815260200191508051906020019060200280838360005b838110156101ad578082015181840152602081019050610192565b505050509050019250505060405180910390f35b610203600480360360208110156101d757600080fd5b81019080803573ffffffffffffffffffffffffffffffffffffffff169060200190929190505050610781565b604051808215151515815260200191505060405180910390f35b6102d36004803603602081101561023357600080fd5b810190808035906020019064010000000081111561025057600080fd5b82018360208201111561026257600080fd5b8035906020019184602083028401116401000000008311171561028457600080fd5b919080806020026020016040519081016040528093929190818152602001838360200280828437600081840152601f19601f82011690508083019250505050505050919291929050505061090e565b005b610301600480360360208110156102eb57600080fd5b81019080803590602001909291905050506109a4565b604051808273ffffffffffffffffffffffffffffffffffffffff1673ffffffffffffffffffffffffffffffffffffffff16815260200191505060405180910390f35b61034b610a42565b604051808273ffffffffffffffffffffffffffffffffffffffff1673ffffffffffffffffffffffffffffffffffffffff16815260200191505060405180910390f35b610395610a67565b6040518082815260200191505060405180910390f35b6103ed600480360360208110156103c157600080fd5b81019080803573ffffffffffffffffffffffffffffffffffffffff169060200190929190505050610afb565b604051808215151515815260200191505060405180910390f35b6104bd6004803603602081101561041d57600080fd5b810190808035906020019064010000000081111561043a57600080fd5b82018360208201111561044c57600080fd5b8035906020019184602083028401116401000000008311171561046e57600080fd5b919080806020026020016040519081016040528093929190818152602001838360200280828437600081840152601f19601f820116905080830192505050505050509192919290505050610c88565b005b610501600480360360208110156104d557600080fd5b81019080803573ffffffffffffffffffffffffffffffffffffffff169060200190929190505050610d1e565b005b6000600173__AddressListLib________________________63ab5f89a49091846040518363ffffffff1660e01b8152600401808381526020018273ffffffffffffffffffffffffffffffffffffffff1673ffffffffffffffffffffffffffffffffffffffff1681526020019250505060206040518083038186803b15801561058b57600080fd5b505af415801561059f573d6000803e3d6000fd5b505050506040513d60208110156105b557600080fd5b81019080805190602001909291905050509050919050565b6000600173__AddressListLib________________________631a65cb959091846040518363ffffffff1660e01b8152600401808381526020018273ffffffffffffffffffffffffffffffffffffffff1673ffffffffffffffffffffffffffffffffffffffff1681526020019250505060206040518083038186803b15801561065557600080fd5b505af4158015610669573d6000803e3d6000fd5b505050506040513d602081101561067f57600080fd5b81019080805190602001909291905050509050919050565b6060600173__AddressListLib________________________636146e87890916040518263ffffffff1660e01b81526004018082815260200191505060006040518083038186803b1580156106eb57600080fd5b505af41580156106ff573d6000803e3d6000fd5b505050506040513d6000823e3d601f19601f82011682018060405250602081101561072957600080fd5b81019080805164010000000081111561074157600080fd5b8281019050602081018481111561075757600080fd5b815185602082028301116401000000008211171561077457600080fd5b5050929190505050905090565b60008060009054906101000a900473ffffffffffffffffffffffffffffffffffffffff1673ffffffffffffffffffffffffffffffffffffffff163373ffffffffffffffffffffffffffffffffffffffff16146107dc57600080fd5b600173__AddressListLib________________________636c11a8a39091846040518363ffffffff1660e01b8152600401808381526020018273ffffffffffffffffffffffffffffffffffffffff1673ffffffffffffffffffffffffffffffffffffffff1681526020019250505060206040518083038186803b15801561086257600080fd5b505af4158015610876573d6000803e3d6000fd5b505050506040513d602081101561088c57600080fd5b810190808051906020019092919050505090508015610909577f86fb0a934cb6730198dcf6f38b2f664a9e7cf3ff7d82f6a32dd3b64e2980b0ae82604051808273ffffffffffffffffffffffffffffffffffffffff1673ffffffffffffffffffffffffffffffffffffffff16815260200191505060405180910390a15b919050565b6000809054906101000a900473ffffffffffffffffffffffffffffffffffffffff1673ffffffffffffffffffffffffffffffffffffffff163373ffffffffffffffffffffffffffffffffffffffff161461096757600080fd5b60008090505b81518110156109a05761099282828151811061098557fe5b6020026020010151610781565b50808060010191505061096d565b5050565b6000600173__AddressListLib________________________63033941c19091846040518363ffffffff1660e01b8152600401808381526020018281526020019250505060206040518083038186803b158015610a0057600080fd5b505af4158015610a14573d6000803e3d6000fd5b505050506040513d6020811015610a2a57600080fd5b81019080805190602001909291905050509050919050565b6000809054906101000a900473ffffffffffffffffffffffffffffffffffffffff1681565b6000600173__AddressListLib________________________631ecb748690916040518263ffffffff1660e01b81526004018082815260200191505060206040518083038186803b158015610abb57600080fd5b505af4158015610acf573d6000803e3d6000fd5b505050506040513d6020811015610ae557600080fd5b8101908080519060200190929190505050905090565b60008060009054906101000a900473ffffffffffffffffffffffffffffffffffffffff1673ffffffffffffffffffffffffffffffffffffffff163373ffffffffffffffffffffffffffffffffffffffff1614610b5657600080fd5b600173__AddressListLib________________________6390c158cb9091846040518363ffffffff1660e01b8152600401808381526020018273ffffffffffffffffffffffffffffffffffffffff1673ffffffffffffffffffffffffffffffffffffffff1681526020019250505060206040518083038186803b158015610bdc57600080fd5b505af4158015610bf0573d6000803e3d6000fd5b505050506040513d6020811015610c0657600080fd5b810190808051906020019092919050505090508015610c83577f397c0dccec32ef33cd10bec82160d77ccf7cdb5333fdce70545bd3785433fe5682604051808273ffffffffffffffffffffffffffffffffffffffff1673ffffffffffffffffffffffffffffffffffffffff16815260200191505060405180910390a15b919050565b6000809054906101000a900473ffffffffffffffffffffffffffffffffffffffff1673ffffffffffffffffffffffffffffffffffffffff163373ffffffffffffffffffffffffffffffffffffffff1614610ce157600080fd5b60008090505b8151811015610d1a57610d0c828281518110610cff57fe5b6020026020010151610afb565b508080600101915050610ce7565b5050565b6000809054906101000a900473ffffffffffffffffffffffffffffffffffffffff1673ffffffffffffffffffffffffffffffffffffffff163373ffffffffffffffffffffffffffffffffffffffff1614610d7757600080fd5b806000806101000a81548173ffffffffffffffffffffffffffffffffffffffff021916908373ffffffffffffffffffffffffffffffffffffffff1602179055505056fea165627a7a72305820a3a3efa14df38ec422136d69d79b6d0c3b63454fb91b4f6842ee6e30275909b20029",
  "source": "pragma solidity ^0.5.0;\n\nimport \"./external/AddressListLib.sol\";\nimport \"./external/Owned.sol\";\n\ncontract Delegated is Owned {\n\n    using AddressListLib for AddressListLib.AddressList; // Import the data structure AddressList from the AddressListLib contract\n\n    AddressListLib.AddressList delegates;  // A list of delegates that can call this contract\n\n    ///////////////////////////\n    /// Owner Functions\n    ///////////////////////////\n\n    /// @notice Add a new delegate to the list of delegates\n    /// @param delegate The address of the new delegate\n    /// @return True if the delegate was successfully added\n    function addDelegate (address delegate) public onlyOwner returns (bool success) {\n        success = delegates.add(delegate);\n        if(success) emit AddDelegate_event(delegate);\n    }\n\n    /// @notice Remove an existing delegate from the list of delegates\n    /// @param delegate The address of an existing delegate\n    /// @return True if the delegate was successfully removed\n    function removeDelegate (address delegate) public onlyOwner returns (bool success) {\n        success = delegates.remove(delegate);\n        if(success) emit RemoveDelegate_event(delegate);\n    }\n\n    /// @notice Add a new delegate to the list of delegates\n    /// @param delegateList The list of addresses to set as delegates\n    function addDelegates (address[] memory delegateList) public onlyOwner {\n        for (uint i = 0; i < delegateList.length; i++) {\n            addDelegate(delegateList[i]);\n        }\n    }\n\n    /// @notice Remove an existing delegate from the list of delegates\n    /// @param delegateList The list of addresses to set as delegates\n    function removeDelegates (address[] memory delegateList) public onlyOwner {\n        for (uint i = 0; i < delegateList.length; i++) {\n            removeDelegate(delegateList[i]);\n        }\n    }\n\n    ///////////////////////////\n    /// Getter Functions\n    ///////////////////////////\n\n    /// @notice Determine if a given address is a delegate of this wallet\n    /// @param account The given address\n    /// @return True if 'account' is a delegate\n    function isDelegate (address account) public view returns (bool) {\n        return delegates.contains(account);\n    }\n\n    /// @notice This function is for easily fetching the current list of delegates\n    /// @return An address array of all current delegates\n    function getDelegateList () public view returns (address[] memory) {\n        return delegates.getList();\n    }\n\n    /// @notice Get the current total number of delegates\n    /// @return The total number of delegates\n    function totalDelegates () public view returns (uint) {\n        return delegates.getLength();\n    }\n\n    /// @notice Fetch a delegate address at a particular index\n    /// @param i The index from which to fetch the delegate address\n    /// @return The delegate address at index 'i'\n    function getDelegateAt (uint i) public view returns (address) {\n        return delegates.getValueAt(i);\n    }\n\n    /// @notice Fetch the index of a particular delegate address. Note: if the index returns '0',\n    ///         it must be called in conjuction with isDelegate() due to '0' being a default return value\n    /// @param delegate The delegate address from which to grab the index\n    /// @return The index of 'delegate'\n    function getIndexOf (address delegate) public view returns (uint) {\n        return delegates.getIndexOf(delegate);\n    }\n\n    ///////////////////////////\n    /// Modifiers and Events\n    ///////////////////////////\n\n    modifier onlyDelegates () {\n        require(isDelegate(msg.sender), \"only a delegate can call this function\");\n        _;\n    }\n\n    event AddDelegate_event (address delegate);\n    event RemoveDelegate_event (address delegate);\n\n}\n",
  "sourcePath": "/home/joe/Documents/git/chicobitcoinjoe/delegated-wallet/contracts/Delegated.sol",
  "compiler": {
    "name": "solc",
    "version": "0.5.8+commit.23d335f2.Emscripten.clang"
  },
  "schemaVersion": "3.0.16",
  "updatedAt": "2019-11-06T21:47:41.944Z",
  "devdoc": {
    "methods": {
      "addDelegate(address)": {
        "params": {
          "delegate": "The address of the new delegate"
        },
        "return": "True if the delegate was successfully added"
      },
      "addDelegates(address[])": {
        "params": {
          "delegateList": "The list of addresses to set as delegates"
        }
      },
      "getDelegateAt(uint256)": {
        "params": {
          "i": "The index from which to fetch the delegate address"
        },
        "return": "The delegate address at index 'i'"
      },
      "getDelegateList()": {
        "return": "An address array of all current delegates"
      },
      "getIndexOf(address)": {
        "params": {
          "delegate": "The delegate address from which to grab the index"
        },
        "return": "The index of 'delegate'"
      },
      "isDelegate(address)": {
        "params": {
          "account": "The given address"
        },
        "return": "True if 'account' is a delegate"
      },
      "removeDelegate(address)": {
        "params": {
          "delegate": "The address of an existing delegate"
        },
        "return": "True if the delegate was successfully removed"
      },
      "removeDelegates(address[])": {
        "params": {
          "delegateList": "The list of addresses to set as delegates"
        }
      },
      "totalDelegates()": {
        "return": "The total number of delegates"
      }
    }
  },
  "userdoc": {
    "methods": {
      "addDelegate(address)": {
        "notice": "//////////////////////// Owner Functions ////////////////////////Add a new delegate to the list of delegates"
      },
      "addDelegates(address[])": {
        "notice": "Add a new delegate to the list of delegates"
      },
      "getDelegateAt(uint256)": {
        "notice": "Fetch a delegate address at a particular index"
      },
      "getDelegateList()": {
        "notice": "This function is for easily fetching the current list of delegates"
      },
      "getIndexOf(address)": {
        "notice": "Fetch the index of a particular delegate address. Note: if the index returns '0',         it must be called in conjuction with isDelegate() due to '0' being a default return value"
      },
      "isDelegate(address)": {
        "notice": "//////////////////////// Getter Functions ////////////////////////Determine if a given address is a delegate of this wallet"
      },
      "removeDelegate(address)": {
        "notice": "Remove an existing delegate from the list of delegates"
      },
      "removeDelegates(address[])": {
        "notice": "Remove an existing delegate from the list of delegates"
      },
      "totalDelegates()": {
        "notice": "Get the current total number of delegates"
      }
    }
  }
}