{
  "contractName": "Clone",
  "abi": [
    {
      "constant": true,
      "inputs": [],
      "name": "blockInitialized",
      "outputs": [
        {
          "name": "",
          "type": "uint256"
        }
      ],
      "payable": false,
      "stateMutability": "view",
      "type": "function"
    },
    {
      "constant": true,
      "inputs": [],
      "name": "cloneFactory",
      "outputs": [
        {
          "name": "",
          "type": "address"
        }
      ],
      "payable": false,
      "stateMutability": "view",
      "type": "function"
    },
    {
      "inputs": [],
      "payable": false,
      "stateMutability": "nonpayable",
      "type": "constructor"
    }
  ],
  "bytecode": "0x608060405234801561001057600080fd5b504360018190555060f2806100266000396000f3fe6080604052348015600f57600080fd5b506004361060325760003560e01c80639bc40c4c146037578063a064f9a1146053575b600080fd5b603d609b565b6040518082815260200191505060405180910390f35b605960a1565b604051808273ffffffffffffffffffffffffffffffffffffffff1673ffffffffffffffffffffffffffffffffffffffff16815260200191505060405180910390f35b60015481565b6000809054906101000a900473ffffffffffffffffffffffffffffffffffffffff168156fea165627a7a72305820c4670ff32649ba3e21dbc13abfe20e5fb67c945152655c7ce20aef3969e370cc0029",
  "source": "pragma solidity ^0.5.0;\n\n/*\nThe MIT License (MIT)\n\nPermission is hereby granted, free of charge, to any person obtaining\na copy of this software and associated documentation files (the\n\"Software\"), to deal in the Software without restriction, including\nwithout limitation the rights to use, copy, modify, merge, publish,\ndistribute, sublicense, and/or sell copies of the Software, and to\npermit persons to whom the Software is furnished to do so, subject to\nthe following conditions:\n\nThe above copyright notice and this permission notice shall be included\nin all copies or substantial portions of the Software.\n\nTHE SOFTWARE IS PROVIDED \"AS IS\", WITHOUT WARRANTY OF ANY KIND, EXPRESS\nOR IMPLIED, INCLUDING BUT NOT LIMITED TO THE WARRANTIES OF\nMERCHANTABILITY, FITNESS FOR A PARTICULAR PURPOSE AND NONINFRINGEMENT.\nIN NO EVENT SHALL THE AUTHORS OR COPYRIGHT HOLDERS BE LIABLE FOR ANY\nCLAIM, DAMAGES OR OTHER LIABILITY, WHETHER IN AN ACTION OF CONTRACT,\nTORT OR OTHERWISE, ARISING FROM, OUT OF OR IN CONNECTION WITH THE\nSOFTWARE OR THE USE OR OTHER DEALINGS IN THE SOFTWARE.\n*/\n\n/*\n    author: Joseph Reed\n*/\ncontract Clone {\n\n  CloneFactory public cloneFactory;\n\n  uint public blockInitialized;\n\n  /// @notice Gaurantees the recurring transaction blueprint cannot be selfdestructed\n  constructor () public {\n      blockInitialized = block.number;\n  }\n  \n  modifier requireNotInitialized () {\n    require(blockInitialized == 0);\n    cloneFactory = CloneFactory(msg.sender);\n    _;\n    blockInitialized = block.number;\n  }\n\n}\n\n/*\nThe MIT License (MIT)\n\nCopyright (c) 2018 Murray Software, LLC.\n\nPermission is hereby granted, free of charge, to any person obtaining\na copy of this software and associated documentation files (the\n\"Software\"), to deal in the Software without restriction, including\nwithout limitation the rights to use, copy, modify, merge, publish,\ndistribute, sublicense, and/or sell copies of the Software, and to\npermit persons to whom the Software is furnished to do so, subject to\nthe following conditions:\n\nThe above copyright notice and this permission notice shall be included\nin all copies or substantial portions of the Software.\n\nTHE SOFTWARE IS PROVIDED \"AS IS\", WITHOUT WARRANTY OF ANY KIND, EXPRESS\nOR IMPLIED, INCLUDING BUT NOT LIMITED TO THE WARRANTIES OF\nMERCHANTABILITY, FITNESS FOR A PARTICULAR PURPOSE AND NONINFRINGEMENT.\nIN NO EVENT SHALL THE AUTHORS OR COPYRIGHT HOLDERS BE LIABLE FOR ANY\nCLAIM, DAMAGES OR OTHER LIABILITY, WHETHER IN AN ACTION OF CONTRACT,\nTORT OR OTHERWISE, ARISING FROM, OUT OF OR IN CONNECTION WITH THE\nSOFTWARE OR THE USE OR OTHER DEALINGS IN THE SOFTWARE.\n*/\n//solhint-disable max-line-length\n//solhint-disable no-inline-assembly\n\ncontract CloneFactory {\n\n  function createClone(address target) internal returns (address result) {\n    bytes20 targetBytes = bytes20(target);\n    assembly {\n      let clone := mload(0x40)\n      mstore(clone, 0x3d602d80600a3d3981f3363d3d373d3d3d363d73000000000000000000000000)\n      mstore(add(clone, 0x14), targetBytes)\n      mstore(add(clone, 0x28), 0x5af43d82803e903d91602b57fd5bf30000000000000000000000000000000000)\n      result := create(0, clone, 0x37)\n    }\n  }\n\n  function isClone(address target, address query) internal view returns (bool result) {\n    bytes20 targetBytes = bytes20(target);\n    assembly {\n      let clone := mload(0x40)\n      mstore(clone, 0x363d3d373d3d3d363d7300000000000000000000000000000000000000000000)\n      mstore(add(clone, 0xa), targetBytes)\n      mstore(add(clone, 0x1e), 0x5af43d82803e903d91602b57fd5bf30000000000000000000000000000000000)\n\n      let other := add(clone, 0x40)\n      extcodecopy(query, other, 0, 0x2d)\n      result := and(\n        eq(mload(clone), mload(other)),\n        eq(mload(add(clone, 0xd)), mload(add(other, 0xd)))\n      )\n    }\n  }\n}\n",
  "sourcePath": "/home/joe/Documents/git/chicobitcoinjoe/recurring-transactions/contracts/external/CloneFactory.sol",
  "compiler": {
    "name": "solc",
    "version": "0.5.8+commit.23d335f2.Emscripten.clang"
  },
  "schemaVersion": "3.0.16",
  "updatedAt": "2019-11-09T07:37:50.735Z",
  "devdoc": {
    "methods": {}
  },
  "userdoc": {
    "methods": {
      "constructor": "Gaurantees the recurring transaction blueprint cannot be selfdestructed"
    }
  }
}