{
  "contractName": "DelegatedWallet",
  "abi": [
    {
      "constant": true,
      "inputs": [
        {
          "name": "delegate",
          "type": "address"
        }
      ],
      "name": "getIndexOf",
      "outputs": [
        {
          "name": "",
          "type": "uint256"
        }
      ],
      "payable": false,
      "stateMutability": "view",
      "type": "function"
    },
    {
      "constant": true,
      "inputs": [
        {
          "name": "account",
          "type": "address"
        }
      ],
      "name": "isDelegate",
      "outputs": [
        {
          "name": "",
          "type": "bool"
        }
      ],
      "payable": false,
      "stateMutability": "view",
      "type": "function"
    },
    {
      "constant": true,
      "inputs": [],
      "name": "getDelegateList",
      "outputs": [
        {
          "name": "",
          "type": "address[]"
        }
      ],
      "payable": false,
      "stateMutability": "view",
      "type": "function"
    },
    {
      "constant": false,
      "inputs": [
        {
          "name": "delegate",
          "type": "address"
        }
      ],
      "name": "removeDelegate",
      "outputs": [
        {
          "name": "success",
          "type": "bool"
        }
      ],
      "payable": false,
      "stateMutability": "nonpayable",
      "type": "function"
    },
    {
      "constant": false,
      "inputs": [
        {
          "name": "delegateList",
          "type": "address[]"
        }
      ],
      "name": "removeDelegates",
      "outputs": [],
      "payable": false,
      "stateMutability": "nonpayable",
      "type": "function"
    },
    {
      "constant": true,
      "inputs": [
        {
          "name": "i",
          "type": "uint256"
        }
      ],
      "name": "getDelegateAt",
      "outputs": [
        {
          "name": "",
          "type": "address"
        }
      ],
      "payable": false,
      "stateMutability": "view",
      "type": "function"
    },
    {
      "constant": true,
      "inputs": [],
      "name": "owner",
      "outputs": [
        {
          "name": "",
          "type": "address"
        }
      ],
      "payable": false,
      "stateMutability": "view",
      "type": "function"
    },
    {
      "constant": true,
      "inputs": [],
      "name": "blockInitialized",
      "outputs": [
        {
          "name": "",
          "type": "uint256"
        }
      ],
      "payable": false,
      "stateMutability": "view",
      "type": "function"
    },
    {
      "constant": true,
      "inputs": [],
      "name": "cloneFactory",
      "outputs": [
        {
          "name": "",
          "type": "address"
        }
      ],
      "payable": false,
      "stateMutability": "view",
      "type": "function"
    },
    {
      "constant": true,
      "inputs": [],
      "name": "totalDelegates",
      "outputs": [
        {
          "name": "",
          "type": "uint256"
        }
      ],
      "payable": false,
      "stateMutability": "view",
      "type": "function"
    },
    {
      "constant": false,
      "inputs": [
        {
          "name": "delegate",
          "type": "address"
        }
      ],
      "name": "addDelegate",
      "outputs": [
        {
          "name": "success",
          "type": "bool"
        }
      ],
      "payable": false,
      "stateMutability": "nonpayable",
      "type": "function"
    },
    {
      "constant": false,
      "inputs": [
        {
          "name": "delegateList",
          "type": "address[]"
        }
      ],
      "name": "addDelegates",
      "outputs": [],
      "payable": false,
      "stateMutability": "nonpayable",
      "type": "function"
    },
    {
      "constant": false,
      "inputs": [
        {
          "name": "_newOwner",
          "type": "address"
        }
      ],
      "name": "transferOwnership",
      "outputs": [],
      "payable": false,
      "stateMutability": "nonpayable",
      "type": "function"
    },
    {
      "payable": true,
      "stateMutability": "payable",
      "type": "fallback"
    },
    {
      "anonymous": false,
      "inputs": [
        {
          "indexed": true,
          "name": "delegate",
          "type": "address"
        },
        {
          "indexed": true,
          "name": "callAddress",
          "type": "address"
        },
        {
          "indexed": false,
          "name": "callValue",
          "type": "uint256"
        },
        {
          "indexed": false,
          "name": "callData",
          "type": "bytes"
        },
        {
          "indexed": false,
          "name": "returnData",
          "type": "bytes"
        },
        {
          "indexed": false,
          "name": "success",
          "type": "bool"
        }
      ],
      "name": "Call_event",
      "type": "event"
    },
    {
      "anonymous": false,
      "inputs": [
        {
          "indexed": true,
          "name": "sender",
          "type": "address"
        },
        {
          "indexed": false,
          "name": "amount",
          "type": "uint256"
        }
      ],
      "name": "Deposit_event",
      "type": "event"
    },
    {
      "anonymous": false,
      "inputs": [
        {
          "indexed": true,
          "name": "delegate",
          "type": "address"
        },
        {
          "indexed": true,
          "name": "token",
          "type": "address"
        },
        {
          "indexed": true,
          "name": "recipient",
          "type": "address"
        },
        {
          "indexed": false,
          "name": "amount",
          "type": "uint256"
        },
        {
          "indexed": false,
          "name": "success",
          "type": "bool"
        }
      ],
      "name": "Transfer_event",
      "type": "event"
    },
    {
      "anonymous": false,
      "inputs": [
        {
          "indexed": false,
          "name": "delegate",
          "type": "address"
        }
      ],
      "name": "AddDelegate_event",
      "type": "event"
    },
    {
      "anonymous": false,
      "inputs": [
        {
          "indexed": false,
          "name": "delegate",
          "type": "address"
        }
      ],
      "name": "RemoveDelegate_event",
      "type": "event"
    },
    {
      "constant": false,
      "inputs": [
        {
          "name": "_owner",
          "type": "address"
        }
      ],
      "name": "initialize",
      "outputs": [],
      "payable": false,
      "stateMutability": "nonpayable",
      "type": "function"
    },
    {
      "constant": false,
      "inputs": [
        {
          "name": "token",
          "type": "address"
        },
        {
          "name": "recipient",
          "type": "address"
        },
        {
          "name": "amount",
          "type": "uint256"
        }
      ],
      "name": "transfer",
      "outputs": [
        {
          "name": "success",
          "type": "bool"
        }
      ],
      "payable": false,
      "stateMutability": "nonpayable",
      "type": "function"
    },
    {
      "constant": false,
      "inputs": [
        {
          "name": "callAddress",
          "type": "address"
        },
        {
          "name": "callValue",
          "type": "uint256"
        },
        {
          "name": "callData",
          "type": "bytes"
        }
      ],
      "name": "call",
      "outputs": [
        {
          "name": "success",
          "type": "bool"
        },
        {
          "name": "returnData",
          "type": "bytes"
        }
      ],
      "payable": false,
      "stateMutability": "nonpayable",
      "type": "function"
    },
    {
      "constant": true,
      "inputs": [
        {
          "name": "token",
          "type": "address"
        }
      ],
      "name": "balanceOf",
      "outputs": [
        {
          "name": "balance",
          "type": "uint256"
        }
      ],
      "payable": false,
      "stateMutability": "view",
      "type": "function"
    }
  ],
  "bytecode": "0x6080604052336000806101000a81548173ffffffffffffffffffffffffffffffffffffffff021916908373ffffffffffffffffffffffffffffffffffffffff1602179055506118ec806100536000396000f3fe6080604052600436106100fe5760003560e01c80638da5cb5b11610095578063beabacc811610064578063beabacc814610710578063c4d66de8146107a3578063e71bdf41146107f4578063eb7003731461085d578063f2fde38b14610922576100fe565b80638da5cb5b1461060c5780639bc40c4c14610663578063a064f9a11461068e578063a5551bee146106e5576100fe565b80636dbf2fa0116100d15780636dbf2fa0146102f157806370a082311461046757806374723555146104cc5780637712a37d14610591576100fe565b8063017df5221461014e57806307779627146101b357806340ce08b61461021c57806367e7646f14610288575b3373ffffffffffffffffffffffffffffffffffffffff167f13d8b731cfddb1e8d6d230a4f64afe94251cf4c4fa93e730ebda89a63f8baa21346040518082815260200191505060405180910390a2005b34801561015a57600080fd5b5061019d6004803603602081101561017157600080fd5b81019080803573ffffffffffffffffffffffffffffffffffffffff169060200190929190505050610973565b6040518082815260200191505060405180910390f35b3480156101bf57600080fd5b50610202600480360360208110156101d657600080fd5b81019080803573ffffffffffffffffffffffffffffffffffffffff169060200190929190505050610a3d565b604051808215151515815260200191505060405180910390f35b34801561022857600080fd5b50610231610b07565b6040518080602001828103825283818151815260200191508051906020019060200280838360005b83811015610274578082015181840152602081019050610259565b505050509050019250505060405180910390f35b34801561029457600080fd5b506102d7600480360360208110156102ab57600080fd5b81019080803573ffffffffffffffffffffffffffffffffffffffff169060200190929190505050610bf1565b604051808215151515815260200191505060405180910390f35b3480156102fd57600080fd5b506103e16004803603606081101561031457600080fd5b81019080803573ffffffffffffffffffffffffffffffffffffffff169060200190929190803590602001909291908035906020019064010000000081111561035b57600080fd5b82018360208201111561036d57600080fd5b8035906020019184600183028401116401000000008311171561038f57600080fd5b91908080601f016020809104026020016040519081016040528093929190818152602001838380828437600081840152601f19601f820116905080830192505050505050509192919290505050610d7e565b604051808315151515815260200180602001828103825283818151815260200191508051906020019080838360005b8381101561042b578082015181840152602081019050610410565b50505050905090810190601f1680156104585780820380516001836020036101000a031916815260200191505b50935050505060405180910390f35b34801561047357600080fd5b506104b66004803603602081101561048a57600080fd5b81019080803573ffffffffffffffffffffffffffffffffffffffff169060200190929190505050610fee565b6040518082815260200191505060405180910390f35b3480156104d857600080fd5b5061058f600480360360208110156104ef57600080fd5b810190808035906020019064010000000081111561050c57600080fd5b82018360208201111561051e57600080fd5b8035906020019184602083028401116401000000008311171561054057600080fd5b919080806020026020016040519081016040528093929190818152602001838360200280828437600081840152601f19601f820116905080830192505050505050509192919290505050611103565b005b34801561059d57600080fd5b506105ca600480360360208110156105b457600080fd5b8101908080359060200190929190505050611199565b604051808273ffffffffffffffffffffffffffffffffffffffff1673ffffffffffffffffffffffffffffffffffffffff16815260200191505060405180910390f35b34801561061857600080fd5b50610621611237565b604051808273ffffffffffffffffffffffffffffffffffffffff1673ffffffffffffffffffffffffffffffffffffffff16815260200191505060405180910390f35b34801561066f57600080fd5b5061067861125c565b6040518082815260200191505060405180910390f35b34801561069a57600080fd5b506106a3611262565b604051808273ffffffffffffffffffffffffffffffffffffffff1673ffffffffffffffffffffffffffffffffffffffff16815260200191505060405180910390f35b3480156106f157600080fd5b506106fa611288565b6040518082815260200191505060405180910390f35b34801561071c57600080fd5b506107896004803603606081101561073357600080fd5b81019080803573ffffffffffffffffffffffffffffffffffffffff169060200190929190803573ffffffffffffffffffffffffffffffffffffffff1690602001909291908035906020019092919050505061131c565b604051808215151515815260200191505060405180910390f35b3480156107af57600080fd5b506107f2600480360360208110156107c657600080fd5b81019080803573ffffffffffffffffffffffffffffffffffffffff169060200190929190505050611541565b005b34801561080057600080fd5b506108436004803603602081101561081757600080fd5b81019080803573ffffffffffffffffffffffffffffffffffffffff1690602001909291905050506115db565b604051808215151515815260200191505060405180910390f35b34801561086957600080fd5b506109206004803603602081101561088057600080fd5b810190808035906020019064010000000081111561089d57600080fd5b8201836020820111156108af57600080fd5b803590602001918460208302840111640100000000831117156108d157600080fd5b919080806020026020016040519081016040528093929190818152602001838360200280828437600081840152601f19601f820116905080830192505050505050509192919290505050611768565b005b34801561092e57600080fd5b506109716004803603602081101561094557600080fd5b81019080803573ffffffffffffffffffffffffffffffffffffffff1690602001909291905050506117fe565b005b6000600173__AddressListLib________________________63ab5f89a49091846040518363ffffffff1660e01b8152600401808381526020018273ffffffffffffffffffffffffffffffffffffffff1673ffffffffffffffffffffffffffffffffffffffff1681526020019250505060206040518083038186803b1580156109fb57600080fd5b505af4158015610a0f573d6000803e3d6000fd5b505050506040513d6020811015610a2557600080fd5b81019080805190602001909291905050509050919050565b6000600173__AddressListLib________________________631a65cb959091846040518363ffffffff1660e01b8152600401808381526020018273ffffffffffffffffffffffffffffffffffffffff1673ffffffffffffffffffffffffffffffffffffffff1681526020019250505060206040518083038186803b158015610ac557600080fd5b505af4158015610ad9573d6000803e3d6000fd5b505050506040513d6020811015610aef57600080fd5b81019080805190602001909291905050509050919050565b6060600173__AddressListLib________________________636146e87890916040518263ffffffff1660e01b81526004018082815260200191505060006040518083038186803b158015610b5b57600080fd5b505af4158015610b6f573d6000803e3d6000fd5b505050506040513d6000823e3d601f19601f820116820180604052506020811015610b9957600080fd5b810190808051640100000000811115610bb157600080fd5b82810190506020810184811115610bc757600080fd5b8151856020820283011164010000000082111715610be457600080fd5b5050929190505050905090565b60008060009054906101000a900473ffffffffffffffffffffffffffffffffffffffff1673ffffffffffffffffffffffffffffffffffffffff163373ffffffffffffffffffffffffffffffffffffffff1614610c4c57600080fd5b600173__AddressListLib________________________636c11a8a39091846040518363ffffffff1660e01b8152600401808381526020018273ffffffffffffffffffffffffffffffffffffffff1673ffffffffffffffffffffffffffffffffffffffff1681526020019250505060206040518083038186803b158015610cd257600080fd5b505af4158015610ce6573d6000803e3d6000fd5b505050506040513d6020811015610cfc57600080fd5b810190808051906020019092919050505090508015610d79577f86fb0a934cb6730198dcf6f38b2f664a9e7cf3ff7d82f6a32dd3b64e2980b0ae82604051808273ffffffffffffffffffffffffffffffffffffffff1673ffffffffffffffffffffffffffffffffffffffff16815260200191505060405180910390a15b919050565b60006060610d8b33610a3d565b610de0576040517f08c379a000000000000000000000000000000000000000000000000000000000815260040180806020018281038252602681526020018061189b6026913960400191505060405180910390fd5b8473ffffffffffffffffffffffffffffffffffffffff1684846040518082805190602001908083835b60208310610e2c5780518252602082019150602081019050602083039250610e09565b6001836020036101000a03801982511681845116808217855250505050505090500191505060006040518083038185875af1925050503d8060008114610e8e576040519150601f19603f3d011682016040523d82523d6000602084013e610e93565b606091505b5080925081935050508473ffffffffffffffffffffffffffffffffffffffff163373ffffffffffffffffffffffffffffffffffffffff167eb4e463b22c1c99733833890813533063caa61bf856a987c05a80711857a6728686858760405180858152602001806020018060200184151515158152602001838103835286818151815260200191508051906020019080838360005b83811015610f42578082015181840152602081019050610f27565b50505050905090810190601f168015610f6f5780820380516001836020036101000a031916815260200191505b50838103825285818151815260200191508051906020019080838360005b83811015610fa8578082015181840152602081019050610f8d565b50505050905090810190601f168015610fd55780820380516001836020036101000a031916815260200191505b50965050505050505060405180910390a3935093915050565b60008073ffffffffffffffffffffffffffffffffffffffff168273ffffffffffffffffffffffffffffffffffffffff161415611043573073ffffffffffffffffffffffffffffffffffffffff163190506110fe565b8173ffffffffffffffffffffffffffffffffffffffff166370a08231306040518263ffffffff1660e01b8152600401808273ffffffffffffffffffffffffffffffffffffffff1673ffffffffffffffffffffffffffffffffffffffff16815260200191505060206040518083038186803b1580156110c057600080fd5b505afa1580156110d4573d6000803e3d6000fd5b505050506040513d60208110156110ea57600080fd5b810190808051906020019092919050505090505b919050565b6000809054906101000a900473ffffffffffffffffffffffffffffffffffffffff1673ffffffffffffffffffffffffffffffffffffffff163373ffffffffffffffffffffffffffffffffffffffff161461115c57600080fd5b60008090505b81518110156111955761118782828151811061117a57fe5b6020026020010151610bf1565b508080600101915050611162565b5050565b6000600173__AddressListLib________________________63033941c19091846040518363ffffffff1660e01b8152600401808381526020018281526020019250505060206040518083038186803b1580156111f557600080fd5b505af4158015611209573d6000803e3d6000fd5b505050506040513d602081101561121f57600080fd5b81019080805190602001909291905050509050919050565b6000809054906101000a900473ffffffffffffffffffffffffffffffffffffffff1681565b60055481565b600460009054906101000a900473ffffffffffffffffffffffffffffffffffffffff1681565b6000600173__AddressListLib________________________631ecb748690916040518263ffffffff1660e01b81526004018082815260200191505060206040518083038186803b1580156112dc57600080fd5b505af41580156112f0573d6000803e3d6000fd5b505050506040513d602081101561130657600080fd5b8101908080519060200190929190505050905090565b600061132733610a3d565b61137c576040517f08c379a000000000000000000000000000000000000000000000000000000000815260040180806020018281038252602681526020018061189b6026913960400191505060405180910390fd5b600073ffffffffffffffffffffffffffffffffffffffff168473ffffffffffffffffffffffffffffffffffffffff1614156113ed578273ffffffffffffffffffffffffffffffffffffffff166108fc839081150290604051600060405180830381858888f1935050505090506114b2565b8373ffffffffffffffffffffffffffffffffffffffff1663a9059cbb84846040518363ffffffff1660e01b8152600401808373ffffffffffffffffffffffffffffffffffffffff1673ffffffffffffffffffffffffffffffffffffffff16815260200182815260200192505050602060405180830381600087803b15801561147457600080fd5b505af1158015611488573d6000803e3d6000fd5b505050506040513d602081101561149e57600080fd5b810190808051906020019092919050505090505b8273ffffffffffffffffffffffffffffffffffffffff168473ffffffffffffffffffffffffffffffffffffffff163373ffffffffffffffffffffffffffffffffffffffff167f2b18d03bce2e8cb16f892dea098b0ab4a47885659c15a7e2c68ce7c56c994571858560405180838152602001821515151581526020019250505060405180910390a49392505050565b60006005541461155057600080fd5b33600460006101000a81548173ffffffffffffffffffffffffffffffffffffffff021916908373ffffffffffffffffffffffffffffffffffffffff160217905550806000806101000a81548173ffffffffffffffffffffffffffffffffffffffff021916908373ffffffffffffffffffffffffffffffffffffffff1602179055504360058190555050565b60008060009054906101000a900473ffffffffffffffffffffffffffffffffffffffff1673ffffffffffffffffffffffffffffffffffffffff163373ffffffffffffffffffffffffffffffffffffffff161461163657600080fd5b600173__AddressListLib________________________6390c158cb9091846040518363ffffffff1660e01b8152600401808381526020018273ffffffffffffffffffffffffffffffffffffffff1673ffffffffffffffffffffffffffffffffffffffff1681526020019250505060206040518083038186803b1580156116bc57600080fd5b505af41580156116d0573d6000803e3d6000fd5b505050506040513d60208110156116e657600080fd5b810190808051906020019092919050505090508015611763577f397c0dccec32ef33cd10bec82160d77ccf7cdb5333fdce70545bd3785433fe5682604051808273ffffffffffffffffffffffffffffffffffffffff1673ffffffffffffffffffffffffffffffffffffffff16815260200191505060405180910390a15b919050565b6000809054906101000a900473ffffffffffffffffffffffffffffffffffffffff1673ffffffffffffffffffffffffffffffffffffffff163373ffffffffffffffffffffffffffffffffffffffff16146117c157600080fd5b60008090505b81518110156117fa576117ec8282815181106117df57fe5b60200260200101516115db565b5080806001019150506117c7565b5050565b6000809054906101000a900473ffffffffffffffffffffffffffffffffffffffff1673ffffffffffffffffffffffffffffffffffffffff163373ffffffffffffffffffffffffffffffffffffffff161461185757600080fd5b806000806101000a81548173ffffffffffffffffffffffffffffffffffffffff021916908373ffffffffffffffffffffffffffffffffffffffff1602179055505056fe6f6e6c7920612064656c65676174652063616e2063616c6c20746869732066756e6374696f6ea165627a7a72305820830c2418ea3cfa76119c0c268aa2ccb8c71409218a45f5a38246c13a9fbff4520029",
  "source": "pragma solidity ^0.5.0;\n\nimport \"./external/Clone.sol\";\nimport \"./external/ERC20Token.sol\";\nimport \"./Delegated.sol\";\nimport \"./Interfaces.sol\";\n\n/// @title Delegated Wallet\n/// @author Joseph Reed\n/// @dev This contract's goal is to make it easy for anyone to add utility to their cryptocurrency wallet through\n///      the use of delegates. In general, Delegates will be smart contracts that can transfer funds out of the\n///      wallet in predefined ways. Only the owner can add or remove delegates.\ncontract DelegatedWallet is IDelegatedWallet, Delegated, Payable, Clone {\n\n    /// @notice Initializes the wallet. Uses 'initialize()' instead of a constructor to make use of the clone\n    ///         factory at https://github.com/optionality/clone-factory. In general, 'initialize()' should be\n    ///         called directly following it's deployment through the use of a factory.\n    /// @param _owner The address that owns the wallet\n    function initialize (address _owner) public requireNotInitialized {\n        owner = _owner;\n    }\n\n    /// @notice Allows accepting Ether as a payment\n    function () external payable {\n        emit Deposit_event(msg.sender, msg.value);\n    }\n\n    /// @notice Send 'amount' of 'tokens' to 'recipient'\n    /// @param token The address of the token to transfer\n    /// @param recipient The address of the recipient\n    /// @param amount The amount of tokens to be transferred\n    /// @return True if the transfer was successful\n    function transfer (address token, address payable recipient, uint amount) public onlyDelegates returns (bool success) {\n        if(token == ETHER) {\n            success = recipient.send(amount);\n        }\n        else {\n            success = ERC20Token(token).transfer(recipient, amount);\n        }\n\n        emit Transfer_event(msg.sender, token, recipient, amount, success);\n    }\n\n    /// @notice Send 'amount' of 'tokens' to 'recipient'\n    /// @param callAddress The address of the contract to call\n    /// @param callValue The amount of ether to attach with the call\n    /// @param callData The data to send to the call address\n    /// @return success returns true if the call throws no errors.\n    /// @return returnData contains the returned result of the call\n    function call (address callAddress, uint callValue, bytes memory callData) public onlyDelegates returns (bool success, bytes memory returnData) {\n        (success, returnData) = callAddress.call.value(callValue)(callData);\n        emit Call_event(msg.sender, callAddress, callValue, callData, returnData, success);\n    }\n\n    /// @notice Convenience function to fetch the token balance of the provided token\n    /// @param token The token to fetch the balance of\n    /// @return The balance of the specified token\n    function balanceOf (address token) public view returns (uint balance) {\n        if(token == ETHER)\n            balance = address(this).balance;\n        else\n            balance = ERC20Token(token).balanceOf(address(this));\n    }\n\n    event Call_event(\n        address indexed delegate,\n        address indexed callAddress,\n        uint callValue,\n        bytes callData,\n        bytes returnData,\n        bool success\n    );\n\n    event Deposit_event (\n        address indexed sender,\n        uint amount\n    );\n\n    event Transfer_event (\n        address indexed delegate,\n        address indexed token,\n        address indexed recipient,\n        uint amount,\n        bool success\n    );\n\n}\n",
  "sourcePath": "/home/joe/Documents/git/chicobitcoinjoe/delegated-wallet/contracts/DelegatedWallet.sol",
  "compiler": {
    "name": "solc",
    "version": "0.5.8+commit.23d335f2.Emscripten.clang"
  },
  "schemaVersion": "3.0.16",
  "updatedAt": "2019-11-10T19:17:25.613Z",
  "devdoc": {
    "author": "Joseph Reed",
    "details": "This contract's goal is to make it easy for anyone to add utility to their cryptocurrency wallet through      the use of delegates. In general, Delegates will be smart contracts that can transfer funds out of the      wallet in predefined ways. Only the owner can add or remove delegates.",
    "methods": {
      "addDelegate(address)": {
        "params": {
          "delegate": "The address of the new delegate"
        },
        "return": "True if the delegate was successfully added"
      },
      "addDelegates(address[])": {
        "params": {
          "delegateList": "The list of addresses to set as delegates"
        }
      },
      "balanceOf(address)": {
        "params": {
          "token": "The token to fetch the balance of"
        },
        "return": "The balance of the specified token"
      },
      "call(address,uint256,bytes)": {
        "params": {
          "callAddress": "The address of the contract to call",
          "callData": "The data to send to the call address",
          "callValue": "The amount of ether to attach with the call"
        },
        "return": "success returns true if the call throws no errors.returnData contains the returned result of the call"
      },
      "getDelegateAt(uint256)": {
        "params": {
          "i": "The index from which to fetch the delegate address"
        },
        "return": "The delegate address at index 'i'"
      },
      "getDelegateList()": {
        "return": "An address array of all current delegates"
      },
      "getIndexOf(address)": {
        "params": {
          "delegate": "The delegate address from which to grab the index"
        },
        "return": "The index of 'delegate'"
      },
      "initialize(address)": {
        "params": {
          "_owner": "The address that owns the wallet"
        }
      },
      "isDelegate(address)": {
        "params": {
          "account": "The given address"
        },
        "return": "True if 'account' is a delegate"
      },
      "removeDelegate(address)": {
        "params": {
          "delegate": "The address of an existing delegate"
        },
        "return": "True if the delegate was successfully removed"
      },
      "removeDelegates(address[])": {
        "params": {
          "delegateList": "The list of addresses to set as delegates"
        }
      },
      "totalDelegates()": {
        "return": "The total number of delegates"
      },
      "transfer(address,address,uint256)": {
        "params": {
          "amount": "The amount of tokens to be transferred",
          "recipient": "The address of the recipient",
          "token": "The address of the token to transfer"
        },
        "return": "True if the transfer was successful"
      }
    },
    "title": "Delegated Wallet"
  },
  "userdoc": {
    "methods": {
      "addDelegate(address)": {
        "notice": "//////////////////////// Owner Functions ////////////////////////Add a new delegate to the list of delegates"
      },
      "addDelegates(address[])": {
        "notice": "Add a new delegate to the list of delegates"
      },
      "balanceOf(address)": {
        "notice": "Convenience function to fetch the token balance of the provided token"
      },
      "call(address,uint256,bytes)": {
        "notice": "Send 'amount' of 'tokens' to 'recipient'"
      },
      "getDelegateAt(uint256)": {
        "notice": "Fetch a delegate address at a particular index"
      },
      "getDelegateList()": {
        "notice": "This function is for easily fetching the current list of delegates"
      },
      "getIndexOf(address)": {
        "notice": "Fetch the index of a particular delegate address. Note: if the index returns '0',         it must be called in conjuction with isDelegate() due to '0' being a default return value"
      },
      "initialize(address)": {
        "notice": "Initializes the wallet. Uses 'initialize()' instead of a constructor to make use of the clone         factory at https://github.com/optionality/clone-factory. In general, 'initialize()' should be         called directly following it's deployment through the use of a factory."
      },
      "isDelegate(address)": {
        "notice": "//////////////////////// Getter Functions ////////////////////////Determine if a given address is a delegate of this wallet"
      },
      "removeDelegate(address)": {
        "notice": "Remove an existing delegate from the list of delegates"
      },
      "removeDelegates(address[])": {
        "notice": "Remove an existing delegate from the list of delegates"
      },
      "totalDelegates()": {
        "notice": "Get the current total number of delegates"
      },
      "transfer(address,address,uint256)": {
        "notice": "Send 'amount' of 'tokens' to 'recipient'"
      }
    }
  }
}