{
  "contractName": "DelegatedWalletFactory",
  "abi": [
    {
      "constant": true,
      "inputs": [],
      "name": "blockCreated",
      "outputs": [
        {
          "name": "",
          "type": "uint256"
        }
      ],
      "payable": false,
      "stateMutability": "view",
      "type": "function"
    },
    {
      "constant": true,
      "inputs": [],
      "name": "blueprint",
      "outputs": [
        {
          "name": "",
          "type": "address"
        }
      ],
      "payable": false,
      "stateMutability": "view",
      "type": "function"
    },
    {
      "inputs": [
        {
          "name": "_blueprint",
          "type": "address"
        }
      ],
      "payable": false,
      "stateMutability": "nonpayable",
      "type": "constructor"
    },
    {
      "anonymous": false,
      "inputs": [
        {
          "indexed": true,
          "name": "caller",
          "type": "address"
        },
        {
          "indexed": true,
          "name": "owner",
          "type": "address"
        },
        {
          "indexed": false,
          "name": "wallet",
          "type": "address"
        }
      ],
      "name": "CreateWallet_event",
      "type": "event"
    },
    {
      "constant": false,
      "inputs": [
        {
          "name": "owner",
          "type": "address"
        },
        {
          "name": "delegates",
          "type": "address[]"
        }
      ],
      "name": "createWallet",
      "outputs": [
        {
          "name": "",
          "type": "address"
        }
      ],
      "payable": true,
      "stateMutability": "payable",
      "type": "function"
    }
  ],
  "bytecode": "0x608060405234801561001057600080fd5b506040516020806106698339810180604052602081101561003057600080fd5b81019080805190602001909291905050504360008190555080600160006101000a81548173ffffffffffffffffffffffffffffffffffffffff021916908373ffffffffffffffffffffffffffffffffffffffff160217905550506105d0806100996000396000f3fe6080604052600436106100345760003560e01c80631a244e7c146100395780634e989a4c14610151578063c05efa151461017c575b600080fd5b61010f6004803603604081101561004f57600080fd5b81019080803573ffffffffffffffffffffffffffffffffffffffff1690602001909291908035906020019064010000000081111561008c57600080fd5b82018360208201111561009e57600080fd5b803590602001918460208302840111640100000000831117156100c057600080fd5b919080806020026020016040519081016040528093929190818152602001838360200280828437600081840152601f19601f8201169050808301925050505050505091929192905050506101d3565b604051808273ffffffffffffffffffffffffffffffffffffffff1673ffffffffffffffffffffffffffffffffffffffff16815260200191505060405180910390f35b34801561015d57600080fd5b5061016661050e565b6040518082815260200191505060405180910390f35b34801561018857600080fd5b50610191610514565b604051808273ffffffffffffffffffffffffffffffffffffffff1673ffffffffffffffffffffffffffffffffffffffff16815260200191505060405180910390f35b600080610201600160009054906101000a900473ffffffffffffffffffffffffffffffffffffffff1661053a565b905060008190508073ffffffffffffffffffffffffffffffffffffffff1663c4d66de8306040518263ffffffff1660e01b8152600401808273ffffffffffffffffffffffffffffffffffffffff1673ffffffffffffffffffffffffffffffffffffffff168152602001915050600060405180830381600087803b15801561028757600080fd5b505af115801561029b573d6000803e3d6000fd5b5050505060008090505b8451811015610389578173ffffffffffffffffffffffffffffffffffffffff1663e71bdf418683815181106102d657fe5b60200260200101516040518263ffffffff1660e01b8152600401808273ffffffffffffffffffffffffffffffffffffffff1673ffffffffffffffffffffffffffffffffffffffff168152602001915050602060405180830381600087803b15801561034057600080fd5b505af1158015610354573d6000803e3d6000fd5b505050506040513d602081101561036a57600080fd5b81019080805190602001909291905050505080806001019150506102a5565b508073ffffffffffffffffffffffffffffffffffffffff1663f2fde38b866040518263ffffffff1660e01b8152600401808273ffffffffffffffffffffffffffffffffffffffff1673ffffffffffffffffffffffffffffffffffffffff168152602001915050600060405180830381600087803b15801561040957600080fd5b505af115801561041d573d6000803e3d6000fd5b505050506000341115610472578073ffffffffffffffffffffffffffffffffffffffff166108fc349081150290604051600060405180830381858888f19350505050158015610470573d6000803e3d6000fd5b505b8473ffffffffffffffffffffffffffffffffffffffff163373ffffffffffffffffffffffffffffffffffffffff167fe78b8ef631cdb1c7eab040bf8895a32210784ff81663b7473dfcfa4f8bdadda983604051808273ffffffffffffffffffffffffffffffffffffffff1673ffffffffffffffffffffffffffffffffffffffff16815260200191505060405180910390a3809250505092915050565b60005481565b600160009054906101000a900473ffffffffffffffffffffffffffffffffffffffff1681565b6000808260601b90506040517f3d602d80600a3d3981f3363d3d373d3d3d363d7300000000000000000000000081528160148201527f5af43d82803e903d91602b57fd5bf3000000000000000000000000000000000060288201526037816000f09250505091905056fea165627a7a72305820858f63b32132489cf7dc45c23f7e2b1809abac2e9676cb6587b02c3a80ff72e70029",
  "source": "pragma solidity ^0.5.0;\n\nimport \"./external/CloneFactory.sol\";\nimport \"./DelegatedWallet.sol\";\nimport \"./Interfaces.sol\";\n\n/// @title DelegatedWalletFactory Contract\n/// @author Joseph Reed\n/// @dev This contract makes it easy to deploy delegated wallet.\ncontract DelegatedWalletFactory is IDelegatedWalletFactory, CloneFactory {\n\n    uint public blockCreated;           // The block the factory was deployed\n    address public blueprint;   // The delegated wallet blueprint to supply the clone factory\n\n    /// @notice Constructor to create a DelegatedWalletFactory\n    /// @param _blueprint The delegated wallet blueprint\n    constructor (address _blueprint) public {\n        blockCreated = block.number;    // The block number at the time of deployment\n        blueprint = _blueprint;         // The blueprint for every delegated wallet\n    }\n\n    /// @notice Creates a delegated wallet with the owner set to 'owner' and predefined 'delegates'\n    /// @param owner The owner of the delegated wallet\n    /// @param delegates The owner of the delegated wallet\n    /// @return The delegated wallet address\n    function createWallet (address owner, address[] memory delegates) public payable returns (IDelegatedWallet) {\n        // see https://solidity.readthedocs.io/en/v0.5.0/050-breaking-changes.html?highlight=address_make_payable for converting to payable addresses\n        address payable clone = address(uint160(createClone(blueprint)));\n        DelegatedWallet wallet = DelegatedWallet(clone);\n        wallet.initialize(address(this));\n\n        for(uint i = 0; i < delegates.length; i++)\n            wallet.addDelegate(delegates[i]);\n\n        wallet.transferOwnership(owner);\n\n        if(msg.value > 0)\n            address(wallet).transfer(msg.value);\n\n        emit CreateWallet_event(msg.sender, owner, address(wallet));\n\n        return wallet;\n    }\n\n    event CreateWallet_event(address indexed caller, address indexed owner, address wallet);\n\n}\n",
  "sourcePath": "/home/joe/Documents/git/chicobitcoinjoe/delegated-wallet/contracts/DelegatedWalletFactory.sol",
  "compiler": {
    "name": "solc",
    "version": "0.5.8+commit.23d335f2.Emscripten.clang"
  },
  "schemaVersion": "3.0.16",
  "updatedAt": "2019-11-06T21:50:29.754Z",
  "devdoc": {
    "author": "Joseph Reed",
    "details": "This contract makes it easy to deploy delegated wallet.",
    "methods": {
      "constructor": {
        "params": {
          "_blueprint": "The delegated wallet blueprint"
        }
      },
      "createWallet(address,address[])": {
        "params": {
          "delegates": "The owner of the delegated wallet",
          "owner": "The owner of the delegated wallet"
        },
        "return": "The delegated wallet address"
      }
    },
    "title": "DelegatedWalletFactory Contract"
  },
  "userdoc": {
    "methods": {
      "constructor": "Constructor to create a DelegatedWalletFactory",
      "createWallet(address,address[])": {
        "notice": "Creates a delegated wallet with the owner set to 'owner' and predefined 'delegates'"
      }
    }
  }
}