{
  "contractName": "OneTimePayment",
  "abi": [
    {
      "constant": true,
      "inputs": [],
      "name": "blockCreated",
      "outputs": [
        {
          "name": "",
          "type": "uint256"
        }
      ],
      "payable": false,
      "stateMutability": "view",
      "type": "function"
    },
    {
      "constant": true,
      "inputs": [],
      "name": "wallet",
      "outputs": [
        {
          "name": "",
          "type": "address"
        }
      ],
      "payable": false,
      "stateMutability": "view",
      "type": "function"
    },
    {
      "constant": true,
      "inputs": [],
      "name": "payed",
      "outputs": [
        {
          "name": "",
          "type": "bool"
        }
      ],
      "payable": false,
      "stateMutability": "view",
      "type": "function"
    },
    {
      "constant": true,
      "inputs": [],
      "name": "recipient",
      "outputs": [
        {
          "name": "",
          "type": "address"
        }
      ],
      "payable": false,
      "stateMutability": "view",
      "type": "function"
    },
    {
      "constant": true,
      "inputs": [],
      "name": "amount",
      "outputs": [
        {
          "name": "",
          "type": "uint256"
        }
      ],
      "payable": false,
      "stateMutability": "view",
      "type": "function"
    },
    {
      "constant": true,
      "inputs": [],
      "name": "delegate",
      "outputs": [
        {
          "name": "",
          "type": "address"
        }
      ],
      "payable": false,
      "stateMutability": "view",
      "type": "function"
    },
    {
      "constant": true,
      "inputs": [],
      "name": "token",
      "outputs": [
        {
          "name": "",
          "type": "address"
        }
      ],
      "payable": false,
      "stateMutability": "view",
      "type": "function"
    },
    {
      "inputs": [
        {
          "name": "_wallet",
          "type": "address"
        },
        {
          "name": "_delegate",
          "type": "address"
        },
        {
          "name": "_token",
          "type": "address"
        },
        {
          "name": "_recipient",
          "type": "address"
        },
        {
          "name": "_amount",
          "type": "uint256"
        }
      ],
      "payable": false,
      "stateMutability": "nonpayable",
      "type": "constructor"
    },
    {
      "payable": false,
      "stateMutability": "nonpayable",
      "type": "fallback"
    },
    {
      "anonymous": false,
      "inputs": [
        {
          "indexed": false,
          "name": "token",
          "type": "address"
        },
        {
          "indexed": false,
          "name": "recipient",
          "type": "address"
        },
        {
          "indexed": false,
          "name": "amount",
          "type": "uint256"
        }
      ],
      "name": "Payment_event",
      "type": "event"
    }
  ],
  "bytecode": "0x608060405234801561001057600080fd5b5060405160a0806107fc833981018060405260a081101561003057600080fd5b8101908080519060200190929190805190602001909291908051906020019092919080519060200190929190805190602001909291905050504360028190555084600360006101000a81548173ffffffffffffffffffffffffffffffffffffffff021916908373ffffffffffffffffffffffffffffffffffffffff16021790555083600460006101000a81548173ffffffffffffffffffffffffffffffffffffffff021916908373ffffffffffffffffffffffffffffffffffffffff16021790555082600560006101000a81548173ffffffffffffffffffffffffffffffffffffffff021916908373ffffffffffffffffffffffffffffffffffffffff16021790555081600660006101000a81548173ffffffffffffffffffffffffffffffffffffffff021916908373ffffffffffffffffffffffffffffffffffffffff16021790555080600781905550505050505061066d8061018f6000396000f3fe608060405234801561001057600080fd5b506004361061007d5760003560e01c806366d003ac1161005b57806366d003ac1461048e578063aa8c217c146104d8578063c89e4361146104f6578063fc0c546a146105405761007d565b80634e989a4c14610404578063521eb2731461042257806356e4bc1f1461046c575b600860009054906101000a900460ff1615610100576040517f08c379a00000000000000000000000000000000000000000000000000000000081526004018080602001828103825260148152602001807f7061796d656e7420616c72656164792073656e7400000000000000000000000081525060200191505060405180910390fd5b600460009054906101000a900473ffffffffffffffffffffffffffffffffffffffff1673ffffffffffffffffffffffffffffffffffffffff1663beabacc8600560009054906101000a900473ffffffffffffffffffffffffffffffffffffffff16600660009054906101000a900473ffffffffffffffffffffffffffffffffffffffff166007546040518463ffffffff1660e01b8152600401808473ffffffffffffffffffffffffffffffffffffffff1673ffffffffffffffffffffffffffffffffffffffff1681526020018373ffffffffffffffffffffffffffffffffffffffff1673ffffffffffffffffffffffffffffffffffffffff1681526020018281526020019350505050602060405180830381600087803b15801561022357600080fd5b505af1158015610237573d6000803e3d6000fd5b505050506040513d602081101561024d57600080fd5b8101908080519060200190929190505050600860006101000a81548160ff021916908315150217905550600460009054906101000a900473ffffffffffffffffffffffffffffffffffffffff1673ffffffffffffffffffffffffffffffffffffffff166352efea6e6040518163ffffffff1660e01b8152600401602060405180830381600087803b1580156102e157600080fd5b505af11580156102f5573d6000803e3d6000fd5b505050506040513d602081101561030b57600080fd5b8101908080519060200190929190505050507f50b6801dffb3239736de915ffd370f9268c1b41500d789b4fc3214e170d4688d600560009054906101000a900473ffffffffffffffffffffffffffffffffffffffff16600660009054906101000a900473ffffffffffffffffffffffffffffffffffffffff16600754604051808473ffffffffffffffffffffffffffffffffffffffff1673ffffffffffffffffffffffffffffffffffffffff1681526020018373ffffffffffffffffffffffffffffffffffffffff1673ffffffffffffffffffffffffffffffffffffffff168152602001828152602001935050505060405180910390a1005b61040c61058a565b6040518082815260200191505060405180910390f35b61042a610590565b604051808273ffffffffffffffffffffffffffffffffffffffff1673ffffffffffffffffffffffffffffffffffffffff16815260200191505060405180910390f35b6104746105b6565b604051808215151515815260200191505060405180910390f35b6104966105c9565b604051808273ffffffffffffffffffffffffffffffffffffffff1673ffffffffffffffffffffffffffffffffffffffff16815260200191505060405180910390f35b6104e06105ef565b6040518082815260200191505060405180910390f35b6104fe6105f5565b604051808273ffffffffffffffffffffffffffffffffffffffff1673ffffffffffffffffffffffffffffffffffffffff16815260200191505060405180910390f35b61054861061b565b604051808273ffffffffffffffffffffffffffffffffffffffff1673ffffffffffffffffffffffffffffffffffffffff16815260200191505060405180910390f35b60025481565b600360009054906101000a900473ffffffffffffffffffffffffffffffffffffffff1681565b600860009054906101000a900460ff1681565b600660009054906101000a900473ffffffffffffffffffffffffffffffffffffffff1681565b60075481565b600460009054906101000a900473ffffffffffffffffffffffffffffffffffffffff1681565b600560009054906101000a900473ffffffffffffffffffffffffffffffffffffffff168156fea165627a7a72305820964b1d20f968d839dcb65cf9063e6641c5fbbb5377c93bcff9225117f258f6f10029",
  "source": "pragma solidity ^0.5.0;\n\nimport \"../Interfaces.sol\";\n\n/// @title OneTimePayment Contract\n/// @author Joseph Reed\n/// @dev This contract deploys a one time payment that can be registered to a payment delegate\ncontract OneTimePayment is IFutureTransaction {\n\n    uint public blockCreated;               // Records the block when the contract is created\n\n    IDelegatedWallet public wallet;         // The wallet funds are pulled from\n    ITransactionDelegate public delegate;   // The delegate that transfers funds from the wallet\n    address public token;                   // The token to pull when funding an alarm. default of 0x0 represents native ether\n    address payable public recipient;       // The recipient to send pulled funds to. set to 'this' at initialization\n    uint public amount;                     // The amount of tokens to send when the payment is triggered\n    bool public payed;                      // If the payment has been sent\n\n    /// @notice Initializes the one time payment\n    /// @param _wallet The funding wallet\n    /// @param _delegate The delegate from which to pull payment\n    /// @param _token The token to send when the payment is triggered\n    /// @param _recipient The recipient of the payment\n    /// @param _amount The amount of tokens to send when the payment is triggered\n    constructor (\n        IDelegatedWallet _wallet,\n        ITransactionDelegate _delegate,\n        address _token,\n        address payable _recipient,\n        uint _amount\n    ) public {\n        blockCreated = block.number;\n        wallet = _wallet;\n        delegate = _delegate;\n        token = _token;\n        recipient = _recipient;\n        amount = _amount;\n    }\n\n    /// @notice The default function. Triggers a payment when called by anyone and it\n    ///         automatically unschedules itself up from the payment delegate\n    function () external {\n        require(!payed, 'payment already sent');\n        payed = delegate.transfer(token, recipient, amount);\n        delegate.clear();\n        emit Payment_event(token, recipient, amount);\n    }\n\n    event Payment_event(address token, address recipient, uint amount);\n\n}\n",
  "sourcePath": "/home/joe/Documents/git/chicobitcoinjoe/recurring-transactions/contracts/tests/OneTimePayment.sol",
  "compiler": {
    "name": "solc",
    "version": "0.5.8+commit.23d335f2.Emscripten.clang"
  },
  "schemaVersion": "3.0.16",
  "updatedAt": "2019-11-10T19:09:04.208Z",
  "devdoc": {
    "author": "Joseph Reed",
    "details": "This contract deploys a one time payment that can be registered to a payment delegate",
    "methods": {
      "constructor": {
        "params": {
          "_amount": "The amount of tokens to send when the payment is triggered",
          "_delegate": "The delegate from which to pull payment",
          "_recipient": "The recipient of the payment",
          "_token": "The token to send when the payment is triggered",
          "_wallet": "The funding wallet"
        }
      }
    },
    "title": "OneTimePayment Contract"
  },
  "userdoc": {
    "methods": {
      "constructor": "Initializes the one time payment"
    }
  }
}