{
  "contractName": "RecurringTransaction",
  "abi": [
    {
      "constant": true,
      "inputs": [
        {
          "name": "",
          "type": "uint256"
        }
      ],
      "name": "rtxOptions",
      "outputs": [
        {
          "name": "",
          "type": "uint256"
        }
      ],
      "payable": false,
      "stateMutability": "view",
      "type": "function"
    },
    {
      "constant": true,
      "inputs": [],
      "name": "currentInterval",
      "outputs": [
        {
          "name": "",
          "type": "uint256"
        }
      ],
      "payable": false,
      "stateMutability": "view",
      "type": "function"
    },
    {
      "constant": true,
      "inputs": [],
      "name": "callAddress",
      "outputs": [
        {
          "name": "",
          "type": "address"
        }
      ],
      "payable": false,
      "stateMutability": "view",
      "type": "function"
    },
    {
      "constant": true,
      "inputs": [],
      "name": "callData",
      "outputs": [
        {
          "name": "",
          "type": "bytes"
        }
      ],
      "payable": false,
      "stateMutability": "view",
      "type": "function"
    },
    {
      "constant": true,
      "inputs": [],
      "name": "wallet",
      "outputs": [
        {
          "name": "",
          "type": "address"
        }
      ],
      "payable": false,
      "stateMutability": "view",
      "type": "function"
    },
    {
      "constant": true,
      "inputs": [],
      "name": "blockInitialized",
      "outputs": [
        {
          "name": "",
          "type": "uint256"
        }
      ],
      "payable": false,
      "stateMutability": "view",
      "type": "function"
    },
    {
      "constant": true,
      "inputs": [],
      "name": "cloneFactory",
      "outputs": [
        {
          "name": "",
          "type": "address"
        }
      ],
      "payable": false,
      "stateMutability": "view",
      "type": "function"
    },
    {
      "constant": true,
      "inputs": [],
      "name": "executor",
      "outputs": [
        {
          "name": "",
          "type": "address"
        }
      ],
      "payable": false,
      "stateMutability": "view",
      "type": "function"
    },
    {
      "constant": true,
      "inputs": [],
      "name": "factory",
      "outputs": [
        {
          "name": "",
          "type": "address"
        }
      ],
      "payable": false,
      "stateMutability": "view",
      "type": "function"
    },
    {
      "constant": true,
      "inputs": [],
      "name": "delegate",
      "outputs": [
        {
          "name": "",
          "type": "address"
        }
      ],
      "payable": false,
      "stateMutability": "view",
      "type": "function"
    },
    {
      "constant": true,
      "inputs": [
        {
          "name": "",
          "type": "uint256"
        }
      ],
      "name": "txRequestOptions",
      "outputs": [
        {
          "name": "",
          "type": "uint256"
        }
      ],
      "payable": false,
      "stateMutability": "view",
      "type": "function"
    },
    {
      "payable": true,
      "stateMutability": "payable",
      "type": "fallback"
    },
    {
      "anonymous": false,
      "inputs": [
        {
          "indexed": false,
          "name": "msgSender",
          "type": "address"
        }
      ],
      "name": "Cancel_event",
      "type": "event"
    },
    {
      "anonymous": false,
      "inputs": [
        {
          "indexed": false,
          "name": "msgSender",
          "type": "address"
        },
        {
          "indexed": false,
          "name": "msgValue",
          "type": "uint256"
        }
      ],
      "name": "Deposit_event",
      "type": "event"
    },
    {
      "anonymous": false,
      "inputs": [
        {
          "indexed": false,
          "name": "msgSender",
          "type": "address"
        }
      ],
      "name": "Destroy_event",
      "type": "event"
    },
    {
      "anonymous": false,
      "inputs": [
        {
          "indexed": false,
          "name": "executor",
          "type": "address"
        },
        {
          "indexed": false,
          "name": "currentInterval",
          "type": "uint256"
        },
        {
          "indexed": true,
          "name": "callAddress",
          "type": "address"
        },
        {
          "indexed": false,
          "name": "callData",
          "type": "bytes"
        },
        {
          "indexed": false,
          "name": "rtxOptions",
          "type": "uint256[4]"
        },
        {
          "indexed": false,
          "name": "success",
          "type": "bool"
        },
        {
          "indexed": false,
          "name": "result",
          "type": "bytes"
        }
      ],
      "name": "Execute_event",
      "type": "event"
    },
    {
      "anonymous": false,
      "inputs": [
        {
          "indexed": false,
          "name": "_uint",
          "type": "uint256"
        }
      ],
      "name": "Uint",
      "type": "event"
    },
    {
      "anonymous": false,
      "inputs": [
        {
          "indexed": false,
          "name": "txRequestOptions",
          "type": "uint256[7]"
        }
      ],
      "name": "Log",
      "type": "event"
    },
    {
      "anonymous": false,
      "inputs": [
        {
          "indexed": true,
          "name": "delegate",
          "type": "address"
        },
        {
          "indexed": false,
          "name": "txRequest",
          "type": "address"
        }
      ],
      "name": "Schedule_event",
      "type": "event"
    },
    {
      "constant": false,
      "inputs": [
        {
          "name": "_wallet",
          "type": "address"
        },
        {
          "name": "_delegate",
          "type": "address"
        },
        {
          "name": "_factory",
          "type": "address"
        }
      ],
      "name": "initialize",
      "outputs": [],
      "payable": false,
      "stateMutability": "nonpayable",
      "type": "function"
    },
    {
      "constant": false,
      "inputs": [
        {
          "name": "_callAddress",
          "type": "address"
        },
        {
          "name": "_callData",
          "type": "bytes"
        },
        {
          "name": "_rtxOptions",
          "type": "uint256[4]"
        },
        {
          "name": "_txRequestOptions",
          "type": "uint256[7]"
        }
      ],
      "name": "start",
      "outputs": [],
      "payable": false,
      "stateMutability": "nonpayable",
      "type": "function"
    },
    {
      "constant": false,
      "inputs": [],
      "name": "cancel",
      "outputs": [],
      "payable": false,
      "stateMutability": "nonpayable",
      "type": "function"
    },
    {
      "constant": false,
      "inputs": [],
      "name": "destroy",
      "outputs": [],
      "payable": false,
      "stateMutability": "nonpayable",
      "type": "function"
    },
    {
      "constant": true,
      "inputs": [
        {
          "name": "timestamp",
          "type": "uint256"
        },
        {
          "name": "intervalValue",
          "type": "uint256"
        },
        {
          "name": "intervalUnit",
          "type": "uint256"
        }
      ],
      "name": "getNextTimestamp",
      "outputs": [
        {
          "name": "",
          "type": "uint256"
        }
      ],
      "payable": false,
      "stateMutability": "pure",
      "type": "function"
    },
    {
      "constant": true,
      "inputs": [],
      "name": "getTimestamp",
      "outputs": [
        {
          "name": "",
          "type": "uint256"
        }
      ],
      "payable": false,
      "stateMutability": "view",
      "type": "function"
    },
    {
      "constant": true,
      "inputs": [],
      "name": "maxIntervals",
      "outputs": [
        {
          "name": "",
          "type": "uint256"
        }
      ],
      "payable": false,
      "stateMutability": "view",
      "type": "function"
    },
    {
      "constant": false,
      "inputs": [],
      "name": "execute",
      "outputs": [
        {
          "name": "",
          "type": "bool"
        }
      ],
      "payable": false,
      "stateMutability": "nonpayable",
      "type": "function"
    }
  ],
  "bytecode": "0x6080604052436013819055506123838061001a6000396000f3fe6080604052600436106101145760003560e01c806386ab53e5116100a0578063c34c08e511610064578063c34c08e5146106cd578063c45a015514610724578063c89e43611461077b578063ea4c4200146107d2578063ea8a1af01461082157610114565b806386ab53e51461052c5780639bc40c4c14610557578063a064f9a114610582578063a2de451b146105d9578063c0c53b8b1461063c57610114565b80633e23ee43116100e75780633e23ee43146103a85780634e417a98146103ff578063521eb2731461048f57806361461954146104e657806383197ef01461051557610114565b806316ab5bac14610198578063188ec356146101e75780631a63db7b14610212578063363487bc1461037d575b600034141561012a57610125610838565b610196565b7f13d8b731cfddb1e8d6d230a4f64afe94251cf4c4fa93e730ebda89a63f8baa213334604051808373ffffffffffffffffffffffffffffffffffffffff1673ffffffffffffffffffffffffffffffffffffffff1681526020018281526020019250505060405180910390a15b005b3480156101a457600080fd5b506101d1600480360360208110156101bb57600080fd5b8101908080359060200190929190505050610fd7565b6040518082815260200191505060405180910390f35b3480156101f357600080fd5b506101fc610fef565b6040518082815260200191505060405180910390f35b34801561021e57600080fd5b5061037b60048036036101a081101561023657600080fd5b81019080803573ffffffffffffffffffffffffffffffffffffffff1690602001909291908035906020019064010000000081111561027357600080fd5b82018360208201111561028557600080fd5b803590602001918460018302840111640100000000831117156102a757600080fd5b91908080601f016020809104026020016040519081016040528093929190818152602001838380828437600081840152601f19601f82011690508083019250505050505050919291929080608001906004806020026040519081016040528092919082600460200280828437600081840152601f19601f82011690508083019250505050505091929192908060e001906007806020026040519081016040528092919082600760200280828437600081840152601f19601f8201169050808301925050505050509192919290505050611006565b005b34801561038957600080fd5b50610392611224565b6040518082815260200191505060405180910390f35b3480156103b457600080fd5b506103bd61122a565b604051808273ffffffffffffffffffffffffffffffffffffffff1673ffffffffffffffffffffffffffffffffffffffff16815260200191505060405180910390f35b34801561040b57600080fd5b50610414611250565b6040518080602001828103825283818151815260200191508051906020019080838360005b83811015610454578082015181840152602081019050610439565b50505050905090810190601f1680156104815780820380516001836020036101000a031916815260200191505b509250505060405180910390f35b34801561049b57600080fd5b506104a46112ee565b604051808273ffffffffffffffffffffffffffffffffffffffff1673ffffffffffffffffffffffffffffffffffffffff16815260200191505060405180910390f35b3480156104f257600080fd5b506104fb611314565b604051808215151515815260200191505060405180910390f35b34801561052157600080fd5b5061052a6113c0565b005b34801561053857600080fd5b50610541611650565b6040518082815260200191505060405180910390f35b34801561056357600080fd5b5061056c611667565b6040518082815260200191505060405180910390f35b34801561058e57600080fd5b5061059761166d565b604051808273ffffffffffffffffffffffffffffffffffffffff1673ffffffffffffffffffffffffffffffffffffffff16815260200191505060405180910390f35b3480156105e557600080fd5b50610626600480360360608110156105fc57600080fd5b81019080803590602001909291908035906020019092919080359060200190929190505050611693565b6040518082815260200191505060405180910390f35b34801561064857600080fd5b506106cb6004803603606081101561065f57600080fd5b81019080803573ffffffffffffffffffffffffffffffffffffffff169060200190929190803573ffffffffffffffffffffffffffffffffffffffff169060200190929190803573ffffffffffffffffffffffffffffffffffffffff169060200190929190505050611771565b005b3480156106d957600080fd5b506106e2611890565b604051808273ffffffffffffffffffffffffffffffffffffffff1673ffffffffffffffffffffffffffffffffffffffff16815260200191505060405180910390f35b34801561073057600080fd5b506107396118b6565b604051808273ffffffffffffffffffffffffffffffffffffffff1673ffffffffffffffffffffffffffffffffffffffff16815260200191505060405180910390f35b34801561078757600080fd5b506107906118dc565b604051808273ffffffffffffffffffffffffffffffffffffffff1673ffffffffffffffffffffffffffffffffffffffff16815260200191505060405180910390f35b3480156107de57600080fd5b5061080b600480360360208110156107f557600080fd5b8101908080359060200190929190505050611902565b6040518082815260200191505060405180910390f35b34801561082d57600080fd5b5061083661191a565b005b601660009054906101000a900473ffffffffffffffffffffffffffffffffffffffff1673ffffffffffffffffffffffffffffffffffffffff163373ffffffffffffffffffffffffffffffffffffffff16146108fb576040517f08c379a000000000000000000000000000000000000000000000000000000000815260040180806020018281038252601f8152602001807f6d73672e73656e646572206d75737420626520746865206578656375746f720081525060200191505060405180910390fd5b6000601b60006004811061090b57fe5b01541115610a3d57601560009054906101000a900473ffffffffffffffffffffffffffffffffffffffff1673ffffffffffffffffffffffffffffffffffffffff1663beabacc8600030601b60006004811061096257fe5b01546040518463ffffffff1660e01b8152600401808473ffffffffffffffffffffffffffffffffffffffff1673ffffffffffffffffffffffffffffffffffffffff1681526020018373ffffffffffffffffffffffffffffffffffffffff1673ffffffffffffffffffffffffffffffffffffffff1681526020018281526020019350505050602060405180830381600087803b158015610a0057600080fd5b505af1158015610a14573d6000803e3d6000fd5b505050506040513d6020811015610a2a57600080fd5b8101908080519060200190929190505050505b60006060601560009054906101000a900473ffffffffffffffffffffffffffffffffffffffff1673ffffffffffffffffffffffffffffffffffffffff16636dbf2fa0601960009054906101000a900473ffffffffffffffffffffffffffffffffffffffff16601b600060048110610ab057fe5b0154601a6040518463ffffffff1660e01b8152600401808473ffffffffffffffffffffffffffffffffffffffff1673ffffffffffffffffffffffffffffffffffffffff16815260200183815260200180602001828103825283818154600181600116156101000203166002900481526020019150805460018160011615610100020316600290048015610b845780601f10610b5957610100808354040283529160200191610b84565b820191906000526020600020905b815481529060010190602001808311610b6757829003601f168201915b5050945050505050600060405180830381600087803b158015610ba657600080fd5b505af1158015610bba573d6000803e3d6000fd5b505050506040513d6000823e3d601f19601f820116820180604052506040811015610be457600080fd5b81019080805190602001909291908051640100000000811115610c0657600080fd5b82810190506020810184811115610c1c57600080fd5b8151856001820283011164010000000082111715610c3957600080fd5b505092919050505091509150601960009054906101000a900473ffffffffffffffffffffffffffffffffffffffff1673ffffffffffffffffffffffffffffffffffffffff167ff67e67b7036b017123dd8a2c13926dbdae8f679f83e552b9e619405235cbc9bf601660009054906101000a900473ffffffffffffffffffffffffffffffffffffffff16601854601a601b8787604051808773ffffffffffffffffffffffffffffffffffffffff1673ffffffffffffffffffffffffffffffffffffffff168152602001868152602001806020018560048015610d2f576020028201915b815481526020019060010190808311610d1b575b50508415151515815260200180602001838103835287818154600181600116156101000203166002900481526020019150805460018160011615610100020316600290048015610dc05780601f10610d9557610100808354040283529160200191610dc0565b820191906000526020600020905b815481529060010190602001808311610da357829003601f168201915b5050838103825284818151815260200191508051906020019080838360005b83811015610dfa578082015181840152602081019050610ddf565b50505050905090810190601f168015610e275780820380516001836020036101000a031916815260200191505b509850505050505050505060405180910390a2610e42611650565b6018541080610e5857506000610e56611650565b145b15610ef557610e95601f600460078110610e6e57fe5b0154601b600160048110610e7e57fe5b0154601b600260048110610e8e57fe5b0154611693565b601f600460078110610ea357fe5b0181905550610eb0611b71565b601660006101000a81548173ffffffffffffffffffffffffffffffffffffffff021916908373ffffffffffffffffffffffffffffffffffffffff160217905550610fc1565b601560009054906101000a900473ffffffffffffffffffffffffffffffffffffffff1673ffffffffffffffffffffffffffffffffffffffff166352efea6e6040518163ffffffff1660e01b8152600401602060405180830381600087803b158015610f5f57600080fd5b505af1158015610f73573d6000803e3d6000fd5b505050506040513d6020811015610f8957600080fd5b810190808051906020019092919050505050601660006101000a81549073ffffffffffffffffffffffffffffffffffffffff02191690555b6018600081548092919060010191905055505050565b601b8160048110610fe457fe5b016000915090505481565b6000601f600460078110610fff57fe5b0154905090565b601460009054906101000a900473ffffffffffffffffffffffffffffffffffffffff1673ffffffffffffffffffffffffffffffffffffffff166307779627336040518263ffffffff1660e01b8152600401808273ffffffffffffffffffffffffffffffffffffffff1673ffffffffffffffffffffffffffffffffffffffff16815260200191505060206040518083038186803b1580156110a557600080fd5b505afa1580156110b9573d6000803e3d6000fd5b505050506040513d60208110156110cf57600080fd5b8101908080519060200190929190505050611152576040517f08c379a000000000000000000000000000000000000000000000000000000000815260040180806020018281038252601d8152602001807f6d73672073656e646572206d75737420626520612064656c656761746500000081525060200191505060405180910390fd5b600160188190555083601960006101000a81548173ffffffffffffffffffffffffffffffffffffffff021916908373ffffffffffffffffffffffffffffffffffffffff16021790555082601a90805190602001906111b1929190612232565b5081601b9060046111c39291906122b2565b5080601f9060076111d59291906122f2565b506111de611b71565b601660006101000a81548173ffffffffffffffffffffffffffffffffffffffff021916908373ffffffffffffffffffffffffffffffffffffffff16021790555050505050565b60185481565b601960009054906101000a900473ffffffffffffffffffffffffffffffffffffffff1681565b601a8054600181600116156101000203166002900480601f0160208091040260200160405190810160405280929190818152602001828054600181600116156101000203166002900480156112e65780601f106112bb576101008083540402835291602001916112e6565b820191906000526020600020905b8154815290600101906020018083116112c957829003601f168201915b505050505081565b601460009054906101000a900473ffffffffffffffffffffffffffffffffffffffff1681565b6000601660009054906101000a900473ffffffffffffffffffffffffffffffffffffffff1673ffffffffffffffffffffffffffffffffffffffff1663614619546040518163ffffffff1660e01b8152600401602060405180830381600087803b15801561138057600080fd5b505af1158015611394573d6000803e3d6000fd5b505050506040513d60208110156113aa57600080fd5b8101908080519060200190929190505050905090565b601460009054906101000a900473ffffffffffffffffffffffffffffffffffffffff1673ffffffffffffffffffffffffffffffffffffffff166307779627336040518263ffffffff1660e01b8152600401808273ffffffffffffffffffffffffffffffffffffffff1673ffffffffffffffffffffffffffffffffffffffff16815260200191505060206040518083038186803b15801561145f57600080fd5b505afa158015611473573d6000803e3d6000fd5b505050506040513d602081101561148957600080fd5b810190808051906020019092919050505061150c576040517f08c379a000000000000000000000000000000000000000000000000000000000815260040180806020018281038252601d8152602001807f6d73672073656e646572206d75737420626520612064656c656761746500000081525060200191505060405180910390fd5b601560009054906101000a900473ffffffffffffffffffffffffffffffffffffffff1673ffffffffffffffffffffffffffffffffffffffff166352efea6e6040518163ffffffff1660e01b8152600401602060405180830381600087803b15801561157657600080fd5b505af115801561158a573d6000803e3d6000fd5b505050506040513d60208110156115a057600080fd5b8101908080519060200190929190505050507fbc7064aca23c0e69b68258a088ec093344fca10e8b09429256169782e7f029d933604051808273ffffffffffffffffffffffffffffffffffffffff1673ffffffffffffffffffffffffffffffffffffffff16815260200191505060405180910390a1601460009054906101000a900473ffffffffffffffffffffffffffffffffffffffff1673ffffffffffffffffffffffffffffffffffffffff16ff5b6000601b60036004811061166057fe5b0154905090565b60135481565b601260009054906101000a900473ffffffffffffffffffffffffffffffffffffffff1681565b6000808214156116b7576116b08385611e4e90919063ffffffff16565b9350611767565b60018214156116da576116d38385611e6890919063ffffffff16565b9350611766565b60028214156116fd576116f68385611e8590919063ffffffff16565b9350611765565b6003821415611720576117198385611ea390919063ffffffff16565b9350611764565b60048214156117435761173c8385611ec290919063ffffffff16565b9350611763565b60058214156117625761175f8385611f6490919063ffffffff16565b93505b5b5b5b5b5b8390509392505050565b60006013541461178057600080fd5b33601260006101000a81548173ffffffffffffffffffffffffffffffffffffffff021916908373ffffffffffffffffffffffffffffffffffffffff16021790555082601460006101000a81548173ffffffffffffffffffffffffffffffffffffffff021916908373ffffffffffffffffffffffffffffffffffffffff16021790555081601560006101000a81548173ffffffffffffffffffffffffffffffffffffffff021916908373ffffffffffffffffffffffffffffffffffffffff16021790555080601760006101000a81548173ffffffffffffffffffffffffffffffffffffffff021916908373ffffffffffffffffffffffffffffffffffffffff16021790555043601381905550505050565b601660009054906101000a900473ffffffffffffffffffffffffffffffffffffffff1681565b601760009054906101000a900473ffffffffffffffffffffffffffffffffffffffff1681565b601560009054906101000a900473ffffffffffffffffffffffffffffffffffffffff1681565b601f816007811061190f57fe5b016000915090505481565b601460009054906101000a900473ffffffffffffffffffffffffffffffffffffffff1673ffffffffffffffffffffffffffffffffffffffff166307779627336040518263ffffffff1660e01b8152600401808273ffffffffffffffffffffffffffffffffffffffff1673ffffffffffffffffffffffffffffffffffffffff16815260200191505060206040518083038186803b1580156119b957600080fd5b505afa1580156119cd573d6000803e3d6000fd5b505050506040513d60208110156119e357600080fd5b8101908080519060200190929190505050611a66576040517f08c379a000000000000000000000000000000000000000000000000000000000815260040180806020018281038252601d8152602001807f6d73672073656e646572206d75737420626520612064656c656761746500000081525060200191505060405180910390fd5b601560009054906101000a900473ffffffffffffffffffffffffffffffffffffffff1673ffffffffffffffffffffffffffffffffffffffff166352efea6e6040518163ffffffff1660e01b8152600401602060405180830381600087803b158015611ad057600080fd5b505af1158015611ae4573d6000803e3d6000fd5b505050506040513d6020811015611afa57600080fd5b8101908080519060200190929190505050507f83cd9b83355bb1a34c86838abc34fd05927da5e379e6910192dd334776d1670f33604051808273ffffffffffffffffffffffffffffffffffffffff1673ffffffffffffffffffffffffffffffffffffffff16815260200191505060405180910390a1565b600080601f600660078110611b8257fe5b01549050601560009054906101000a900473ffffffffffffffffffffffffffffffffffffffff1673ffffffffffffffffffffffffffffffffffffffff1663beabacc8600030846040518463ffffffff1660e01b8152600401808473ffffffffffffffffffffffffffffffffffffffff1673ffffffffffffffffffffffffffffffffffffffff1681526020018373ffffffffffffffffffffffffffffffffffffffff1673ffffffffffffffffffffffffffffffffffffffff1681526020018281526020019350505050602060405180830381600087803b158015611c6457600080fd5b505af1158015611c78573d6000803e3d6000fd5b505050506040513d6020811015611c8e57600080fd5b8101908080519060200190929190505050506000601760009054906101000a900473ffffffffffffffffffffffffffffffffffffffff1673ffffffffffffffffffffffffffffffffffffffff16634987cf8b83601460009054906101000a900473ffffffffffffffffffffffffffffffffffffffff16601f6040518463ffffffff1660e01b8152600401808373ffffffffffffffffffffffffffffffffffffffff1673ffffffffffffffffffffffffffffffffffffffff1681526020018260078015611d6f576020028201915b815481526020019060010190808311611d5b575b5050925050506020604051808303818588803b158015611d8e57600080fd5b505af1158015611da2573d6000803e3d6000fd5b50505050506040513d6020811015611db957600080fd5b810190808051906020019092919050505090503373ffffffffffffffffffffffffffffffffffffffff167f501bc89253dedaa79976a8ee719dad5a769c5613a0e93ff7c4fbadb01e197fee82604051808273ffffffffffffffffffffffffffffffffffffffff1673ffffffffffffffffffffffffffffffffffffffff16815260200191505060405180910390a2809250505090565b6000818301905082811015611e6257600080fd5b92915050565b6000603c82028301905082811015611e7f57600080fd5b92915050565b6000610e1082028301905082811015611e9d57600080fd5b92915050565b60006201518082028301905082811015611ebc57600080fd5b92915050565b600080600080611edd620151808781611ed757fe5b04611fe1565b8093508194508295505050508482019150600c6001830381611efb57fe5b04830192506001600c6001840381611f0f57fe5b060191506000611f1f84846120b5565b905080821115611f2d578091505b620151808781611f3957fe5b0662015180611f49868686612140565b0201945086851015611f5a57600080fd5b5050505092915050565b600080600080611f7f620151808781611f7957fe5b04611fe1565b80935081945082955050505084830192506000611f9c84846120b5565b905080821115611faa578091505b620151808781611fb657fe5b0662015180611fc6868686612140565b0201945086851015611fd757600080fd5b5050505092915050565b600080600080849050600062253d8c62010bd98301019050600062023ab1826004028161200a57fe5b059050600460038262023ab102018161201f57fe5b0582039150600062164b0960018401610fa0028161203957fe5b059050601f6004826105b5028161204c57fe5b058403019250600061098f846050028161206257fe5b059050600060508261098f028161207557fe5b0585039050600b828161208457fe5b05945084600c0260028301039150848360318603606402010192508298508197508096505050505050509193909250565b600060018214806120c65750600382145b806120d15750600582145b806120dc5750600782145b806120e75750600882145b806120f25750600a82145b806120fd5750600c82145b1561210b57601f905061213a565b6002821461211c57601e9050612139565b612125836121ef565b61213057601c612133565b601d5b60ff1690505b5b92915050565b60006107b284101561215157600080fd5b600084905060008490506000849050600062253d8c60046064600c600e87038161217757fe5b056113248801018161218557fe5b056003028161219057fe5b05600c80600c600e8803816121a157fe5b0502600287030361016f02816121b357fe5b056004600c600e8803816121c357fe5b056112c08901016105b502816121d557fe5b05617d4b8603010103039050809450505050509392505050565b600080600483816121fc57fe5b06148015612215575060006064838161221157fe5b0614155b8061222b57506000610190838161222857fe5b06145b9050919050565b828054600181600116156101000203166002900490600052602060002090601f016020900481019282601f1061227357805160ff19168380011785556122a1565b828001600101855582156122a1579182015b828111156122a0578251825591602001919060010190612285565b5b5090506122ae9190612332565b5090565b82600481019282156122e1579160200282015b828111156122e05782518255916020019190600101906122c5565b5b5090506122ee9190612332565b5090565b8260078101928215612321579160200282015b82811115612320578251825591602001919060010190612305565b5b50905061232e9190612332565b5090565b61235491905b80821115612350576000816000905550600101612338565b5090565b9056fea165627a7a723058204383123823d037e9683a3c39b2d097ce0aabf5bf87d92bbbf44037c6d8dc4e2e0029",
  "source": "pragma solidity ^0.5.0;\n\nimport \"./external/BokkyPooBahsDateTimeLibrary.sol\";\nimport \"./external/CloneFactory.sol\";\nimport \"./Interfaces.sol\";\n\n/// @title Recurring Transaction Contract\n/// @author Joseph Reed\n/// @dev This contract's allows decentralized execution of on-chain recurring tasks. It requires three main components:\n///     1. A source for creating transactions requests\n///     2. A transaction delegate with the recurring transaction scheduled\n///     3. A funded delegated wallet with the transaction delegate set as a delegate\ncontract RecurringTransaction is IRecurringTransaction, Clone, Payable {\n\n    using BokkyPooBahsDateTimeLibrary for uint;\n\n    IDelegatedWallet public wallet;\n    ITransactionDelegate public delegate;\n    ITransactionRequest public executor;\n    ITransactionRequestFactory public factory;\n    uint public currentInterval;\n    address public callAddress;\n    bytes public callData;\n    uint[4] public rtxOptions;          // [callValue,  intervalValue, intervalUnit, maxIntervals]\n    uint[7] public txRequestOptions;    // [claimWindow, freezeIntervalDuration, reserveWindowSize, executionWindow, timestamp, callGas, deposit]\n\n    /// @notice Uses 'initialize()' instead of a constructor to make use of the clone\n    ///         factory at https://github.com/optionality/clone-factory. In general, 'initialize()' should be\n    ///         called directly following the deployment through the use of a factory.\n    /// @param _delegate The delegate from which to pull transaction deposits and execute transaction calls\n    function initialize (\n        IDelegatedWallet _wallet,\n        ITransactionDelegate _delegate,\n        ITransactionRequestFactory _factory\n    ) public requireNotInitialized {\n        wallet = _wallet;\n        delegate = _delegate;\n        factory = _factory;\n    }\n\n    /// @notice Collects any ether if it is sent to the contract and otherwise will attempt to execute the transaction\n    function () external payable {\n        if(msg.value == 0) executeTransaction();\n        else emit Deposit_event(msg.sender, msg.value);\n    }\n\n    function start (\n        address _callAddress,\n        bytes memory _callData,\n        uint[4] memory _rtxOptions,\n        uint[7] memory _txRequestOptions\n    ) public onlyDelegates {\n        currentInterval = 1;\n        callAddress = _callAddress;\n        callData = _callData;\n        rtxOptions = _rtxOptions;\n        txRequestOptions = _txRequestOptions;\n        executor = scheduleTransactionRequest();\n    }\n\n    /// @notice Cleans up and destroys the alarm. Any leftover ether is sent to the wallet\n    function cancel () public onlyDelegates {\n        delegate.clear();\n        emit Cancel_event(msg.sender);\n    }\n\n    /// @notice Destroys this contract after unscheduling. Any leftover ether is sent to the wallet\n    function destroy () public onlyDelegates {\n        delegate.clear();\n        emit Destroy_event(msg.sender);\n        selfdestruct(address(wallet));\n    }\n\n    function scheduleTransactionRequest () internal returns (ITransactionRequest) {\n        uint depositAmount = txRequestOptions[6];\n        delegate.transfer(ETHER, address(this), depositAmount);\n        ITransactionRequest txRequest = factory.createTransactionRequest.value(depositAmount)(address(wallet), txRequestOptions);\n        emit Schedule_event(msg.sender, txRequest);\n        return txRequest;\n    }\n\n    /// @notice The heart of a recurring transaction\n    ///     1. Check if the caller is the current executor\n    ///     2. Execute the task\n    ///     3. Reschedule the transaction\n    function executeTransaction () internal {\n        require(msg.sender == address(executor), \"msg.sender must be the executor\");\n        if(rtxOptions[0] > 0) delegate.transfer(ETHER, address(this), rtxOptions[0]);\n        (bool success, bytes memory result) = delegate.call(callAddress, rtxOptions[0], callData);\n        emit Execute_event(executor, currentInterval, callAddress, callData, rtxOptions, success, result);\n\n        if(currentInterval < maxIntervals() || maxIntervals() == 0) {\n            txRequestOptions[4] = getNextTimestamp(txRequestOptions[4], rtxOptions[1], rtxOptions[2]);\n            executor = scheduleTransactionRequest();\n        }\n        else {\n            delegate.clear();\n            delete executor;\n        }\n\n        currentInterval++;\n    }\n\n    function getNextTimestamp (uint timestamp, uint intervalValue, uint intervalUnit) public pure returns (uint) {\n             if(intervalUnit == 0) timestamp = timestamp.addSeconds(intervalValue);\n        else if(intervalUnit == 1) timestamp = timestamp.addMinutes(intervalValue);\n        else if(intervalUnit == 2) timestamp = timestamp.addHours(intervalValue);\n        else if(intervalUnit == 3) timestamp = timestamp.addDays(intervalValue);\n        else if(intervalUnit == 4) timestamp = timestamp.addMonths(intervalValue);\n        else if(intervalUnit == 5) timestamp = timestamp.addYears(intervalValue);\n        return timestamp;\n    }\n\n    function getTimestamp () public view returns (uint) {\n        return txRequestOptions[4];\n    }\n\n    function maxIntervals () public view returns (uint) {\n        return rtxOptions[3];\n    }\n\n    function execute () public returns (bool) {\n        return executor.execute();\n    }\n\n    modifier onlyDelegates () {\n        require(wallet.isDelegate(msg.sender), \"msg sender must be a delegate\");\n        _;\n    }\n\n    event Cancel_event (address msgSender);\n    event Deposit_event(address msgSender, uint msgValue);\n    event Destroy_event (address msgSender);\n    event Execute_event(\n        ITransactionRequest executor,\n        uint currentInterval,\n        address indexed callAddress,\n        bytes callData,\n        uint[4] rtxOptions,\n        bool success,\n        bytes result\n    );\n    event Uint (uint _uint);\n    event Log (uint[7] txRequestOptions);\n    event Schedule_event(address indexed delegate, ITransactionRequest txRequest);\n\n}\n",
  "sourcePath": "/home/joe/Documents/git/chicobitcoinjoe/recurring-transactions/contracts/RecurringTransaction.sol",
  "compiler": {
    "name": "solc",
    "version": "0.5.8+commit.23d335f2.Emscripten.clang"
  },
  "schemaVersion": "3.0.16",
  "updatedAt": "2019-11-10T19:17:20.619Z",
  "devdoc": {
    "author": "Joseph Reed",
    "details": "This contract's allows decentralized execution of on-chain recurring tasks. It requires three main components:     1. A source for creating transactions requests     2. A transaction delegate with the recurring transaction scheduled     3. A funded delegated wallet with the transaction delegate set as a delegate",
    "methods": {
      "initialize(address,address,address)": {
        "params": {
          "_delegate": "The delegate from which to pull transaction deposits and execute transaction calls"
        }
      }
    },
    "title": "Recurring Transaction Contract"
  },
  "userdoc": {
    "methods": {
      "cancel()": {
        "notice": "Cleans up and destroys the alarm. Any leftover ether is sent to the wallet"
      },
      "destroy()": {
        "notice": "Destroys this contract after unscheduling. Any leftover ether is sent to the wallet"
      },
      "initialize(address,address,address)": {
        "notice": "Uses 'initialize()' instead of a constructor to make use of the clone         factory at https://github.com/optionality/clone-factory. In general, 'initialize()' should be         called directly following the deployment through the use of a factory."
      }
    }
  }
}