{
  "contractName": "RecurringTransactionFactory",
  "abi": [
    {
      "constant": true,
      "inputs": [],
      "name": "blockCreated",
      "outputs": [
        {
          "name": "",
          "type": "uint256"
        }
      ],
      "payable": false,
      "stateMutability": "view",
      "type": "function"
    },
    {
      "constant": true,
      "inputs": [],
      "name": "blueprint",
      "outputs": [
        {
          "name": "",
          "type": "address"
        }
      ],
      "payable": false,
      "stateMutability": "view",
      "type": "function"
    },
    {
      "constant": true,
      "inputs": [],
      "name": "totalTransactionsCreated",
      "outputs": [
        {
          "name": "",
          "type": "uint256"
        }
      ],
      "payable": false,
      "stateMutability": "view",
      "type": "function"
    },
    {
      "inputs": [
        {
          "name": "_blueprint",
          "type": "address"
        }
      ],
      "payable": false,
      "stateMutability": "nonpayable",
      "type": "constructor"
    },
    {
      "anonymous": false,
      "inputs": [
        {
          "indexed": true,
          "name": "caller",
          "type": "address"
        },
        {
          "indexed": false,
          "name": "transaction",
          "type": "address"
        }
      ],
      "name": "CreateRecurringTransaction_event",
      "type": "event"
    },
    {
      "constant": false,
      "inputs": [
        {
          "name": "wallet",
          "type": "address"
        },
        {
          "name": "delegate",
          "type": "address"
        },
        {
          "name": "factory",
          "type": "address"
        }
      ],
      "name": "createRecurringTransaction",
      "outputs": [
        {
          "name": "",
          "type": "address"
        }
      ],
      "payable": false,
      "stateMutability": "nonpayable",
      "type": "function"
    },
    {
      "constant": false,
      "inputs": [
        {
          "name": "wallet",
          "type": "address"
        },
        {
          "name": "delegate",
          "type": "address"
        },
        {
          "name": "factory",
          "type": "address"
        },
        {
          "name": "callAddress",
          "type": "address"
        },
        {
          "name": "callData",
          "type": "bytes"
        },
        {
          "name": "callOptions",
          "type": "uint256[4]"
        },
        {
          "name": "txRequestOptions",
          "type": "uint256[7]"
        }
      ],
      "name": "createAndStartRecurringTransaction",
      "outputs": [
        {
          "name": "",
          "type": "address"
        }
      ],
      "payable": false,
      "stateMutability": "nonpayable",
      "type": "function"
    }
  ],
  "bytecode": "0x608060405243600055600060025534801561001957600080fd5b506040516020806109278339810180604052602081101561003957600080fd5b810190808051906020019092919050505080600160006101000a81548173ffffffffffffffffffffffffffffffffffffffff021916908373ffffffffffffffffffffffffffffffffffffffff1602179055505061088c8061009b6000396000f3fe608060405234801561001057600080fd5b50600436106100575760003560e01c8063080602701461005c5780634e989a4c1461025a578063c05efa1514610278578063ead2b7f1146102c2578063f4dc619314610386575b600080fd5b610218600480360361020081101561007357600080fd5b81019080803573ffffffffffffffffffffffffffffffffffffffff169060200190929190803573ffffffffffffffffffffffffffffffffffffffff169060200190929190803573ffffffffffffffffffffffffffffffffffffffff169060200190929190803573ffffffffffffffffffffffffffffffffffffffff1690602001909291908035906020019064010000000081111561011057600080fd5b82018360208201111561012257600080fd5b8035906020019184600183028401116401000000008311171561014457600080fd5b91908080601f016020809104026020016040519081016040528093929190818152602001838380828437600081840152601f19601f82011690508083019250505050505050919291929080608001906004806020026040519081016040528092919082600460200280828437600081840152601f19601f82011690508083019250505050505091929192908060e001906007806020026040519081016040528092919082600760200280828437600081840152601f19601f82011690508083019250505050505091929192905050506103a4565b604051808273ffffffffffffffffffffffffffffffffffffffff1673ffffffffffffffffffffffffffffffffffffffff16815260200191505060405180910390f35b6102626105e2565b6040518082815260200191505060405180910390f35b6102806105e8565b604051808273ffffffffffffffffffffffffffffffffffffffff1673ffffffffffffffffffffffffffffffffffffffff16815260200191505060405180910390f35b610344600480360360608110156102d857600080fd5b81019080803573ffffffffffffffffffffffffffffffffffffffff169060200190929190803573ffffffffffffffffffffffffffffffffffffffff169060200190929190803573ffffffffffffffffffffffffffffffffffffffff16906020019092919050505061060e565b604051808273ffffffffffffffffffffffffffffffffffffffff1673ffffffffffffffffffffffffffffffffffffffff16815260200191505060405180910390f35b61038e610624565b6040518082815260200191505060405180910390f35b6000806103b289898961062a565b90508773ffffffffffffffffffffffffffffffffffffffff1663316bef98826040518263ffffffff1660e01b8152600401808273ffffffffffffffffffffffffffffffffffffffff1673ffffffffffffffffffffffffffffffffffffffff168152602001915050602060405180830381600087803b15801561043357600080fd5b505af1158015610447573d6000803e3d6000fd5b505050506040513d602081101561045d57600080fd5b8101908080519060200190929190505050508073ffffffffffffffffffffffffffffffffffffffff16631a63db7b878787876040518563ffffffff1660e01b8152600401808573ffffffffffffffffffffffffffffffffffffffff1673ffffffffffffffffffffffffffffffffffffffff1681526020018060200184600460200280838360005b838110156104ff5780820151818401526020810190506104e4565b5050505090500183600760200280838360005b8381101561052d578082015181840152602081019050610512565b50505050905001828103825285818151815260200191508051906020019080838360005b8381101561056c578082015181840152602081019050610551565b50505050905090810190601f1680156105995780820380516001836020036101000a031916815260200191505b5095505050505050600060405180830381600087803b1580156105bb57600080fd5b505af11580156105cf573d6000803e3d6000fd5b5050505080915050979650505050505050565b60005481565b600160009054906101000a900473ffffffffffffffffffffffffffffffffffffffff1681565b600061061b84848461062a565b90509392505050565b60025481565b600080610658600160009054906101000a900473ffffffffffffffffffffffffffffffffffffffff166107f6565b905060008190508073ffffffffffffffffffffffffffffffffffffffff1663c0c53b8b8787876040518463ffffffff1660e01b8152600401808473ffffffffffffffffffffffffffffffffffffffff1673ffffffffffffffffffffffffffffffffffffffff1681526020018373ffffffffffffffffffffffffffffffffffffffff1673ffffffffffffffffffffffffffffffffffffffff1681526020018273ffffffffffffffffffffffffffffffffffffffff1673ffffffffffffffffffffffffffffffffffffffff1681526020019350505050600060405180830381600087803b15801561074657600080fd5b505af115801561075a573d6000803e3d6000fd5b505050503373ffffffffffffffffffffffffffffffffffffffff167fce00017acdc727267642f8e1d993b622c29a321eb25d8a020349f7a9bf54a04982604051808273ffffffffffffffffffffffffffffffffffffffff1673ffffffffffffffffffffffffffffffffffffffff16815260200191505060405180910390a260026000815480929190600101919050555080925050509392505050565b6000808260601b90506040517f3d602d80600a3d3981f3363d3d373d3d3d363d7300000000000000000000000081528160148201527f5af43d82803e903d91602b57fd5bf3000000000000000000000000000000000060288201526037816000f09250505091905056fea165627a7a723058201c2fea35f8fe6b4968ada8a38c923aed1d2855a8fd2bbbd2adda76d0618682b90029",
  "source": "pragma solidity ^0.5.0;\n\nimport \"./RecurringTransaction.sol\";\nimport \"./Interfaces.sol\";\n\n/// @title RecurringTransactionFactory Contract\n/// @author Joseph Reed\n/// @dev This contract's goal is to create a recurring transactions and optionally\n///      to start it if the factory is set as a delegate\ncontract RecurringTransactionFactory is CloneFactory {\n\n    uint public blockCreated = block.number;  // The block this contract was deployed\n    address public blueprint;                 // The recurring transaction blueprint used by the clone factory\n    uint public totalTransactionsCreated = 0;       // The number of recurring transaction by this factory\n\n    /// @notice Constructor to create a Recurring Transaction Factory\n    /// @param _blueprint The recurring transaction blueprint\n    constructor (address _blueprint) public {\n        blueprint = _blueprint;\n    }\n\n    /// @notice Creates a recurring transaction smart contract\n    /// @param wallet The wallet from which to pull future transaction costs\n    /// @param delegate The delegate that pulls future transaction costs\n    /// @param factory The source for transaction requests\n    /// @return The recurring transaction contract address\n    function createRecurringTransaction (\n        IDelegatedWallet wallet,\n        ITransactionDelegate delegate,\n        ITransactionRequestFactory factory\n    ) public returns (IRecurringTransaction) {\n        return newRTX(wallet, delegate, factory);\n    }\n\n    /// @notice Creates a recurring transaction smart contract\n    /// @param wallet The wallet from which to pull future transaction costs\n    /// @param delegate The delegate that pulls future transaction costs\n    /// @param factory The source for transaction requests\n    /// @param callAddress todo\n    /// @param callData todo\n    /// @param callOptions todo\n    /// @param txRequestOptions todo\n    /// @return The recurring transaction contract address\n    function createAndStartRecurringTransaction (\n        IDelegatedWallet wallet,\n        ITransactionDelegate delegate,\n        ITransactionRequestFactory factory,\n        address callAddress,\n        bytes memory callData,\n        uint[4] memory callOptions,\n        uint[7] memory txRequestOptions\n    ) public returns (IRecurringTransaction) {\n        RecurringTransaction transaction = newRTX(wallet, delegate, factory);\n        delegate.schedule(transaction);\n        transaction.start(callAddress, callData, callOptions, txRequestOptions);\n        return transaction;\n    }\n\n    function newRTX (\n        IDelegatedWallet wallet,\n        ITransactionDelegate delegate,\n        ITransactionRequestFactory factory\n    ) internal returns (RecurringTransaction) {\n        // for converting to payable addresses see:\n        // https://solidity.readthedocs.io/en/v0.5.0/050-breaking-changes.html?highlight=address_make_payable\n        address payable clone = address(uint160(createClone(blueprint)));\n        RecurringTransaction transaction = RecurringTransaction(clone);\n        transaction.initialize(wallet, delegate, factory);\n        emit CreateRecurringTransaction_event(msg.sender, transaction);\n        totalTransactionsCreated++;\n        return transaction;\n    }\n\n    event CreateRecurringTransaction_event(address indexed caller, RecurringTransaction transaction);\n\n}\n",
  "sourcePath": "/home/joe/Documents/git/chicobitcoinjoe/recurring-transactions/contracts/RecurringTransactionFactory.sol",
  "compiler": {
    "name": "solc",
    "version": "0.5.8+commit.23d335f2.Emscripten.clang"
  },
  "schemaVersion": "3.0.16",
  "updatedAt": "2019-11-10T19:17:20.624Z",
  "devdoc": {
    "author": "Joseph Reed",
    "details": "This contract's goal is to create a recurring transactions and optionally      to start it if the factory is set as a delegate",
    "methods": {
      "constructor": {
        "params": {
          "_blueprint": "The recurring transaction blueprint"
        }
      },
      "createAndStartRecurringTransaction(address,address,address,address,bytes,uint256[4],uint256[7])": {
        "params": {
          "callAddress": "todo",
          "callData": "todo",
          "callOptions": "todo",
          "delegate": "The delegate that pulls future transaction costs",
          "factory": "The source for transaction requests",
          "txRequestOptions": "todo",
          "wallet": "The wallet from which to pull future transaction costs"
        },
        "return": "The recurring transaction contract address"
      },
      "createRecurringTransaction(address,address,address)": {
        "params": {
          "delegate": "The delegate that pulls future transaction costs",
          "factory": "The source for transaction requests",
          "wallet": "The wallet from which to pull future transaction costs"
        },
        "return": "The recurring transaction contract address"
      }
    },
    "title": "RecurringTransactionFactory Contract"
  },
  "userdoc": {
    "methods": {
      "constructor": "Constructor to create a Recurring Transaction Factory",
      "createAndStartRecurringTransaction(address,address,address,address,bytes,uint256[4],uint256[7])": {
        "notice": "Creates a recurring transaction smart contract"
      },
      "createRecurringTransaction(address,address,address)": {
        "notice": "Creates a recurring transaction smart contract"
      }
    }
  }
}