{
  "contractName": "TransactionDelegate",
  "abi": [
    {
      "constant": true,
      "inputs": [],
      "name": "blockCreated",
      "outputs": [
        {
          "name": "",
          "type": "uint256"
        }
      ],
      "payable": false,
      "stateMutability": "view",
      "type": "function"
    },
    {
      "anonymous": false,
      "inputs": [
        {
          "indexed": true,
          "name": "transaction",
          "type": "address"
        },
        {
          "indexed": false,
          "name": "success",
          "type": "bool"
        }
      ],
      "name": "Execute_event",
      "type": "event"
    },
    {
      "anonymous": false,
      "inputs": [
        {
          "indexed": true,
          "name": "caller",
          "type": "address"
        },
        {
          "indexed": true,
          "name": "transaction",
          "type": "address"
        }
      ],
      "name": "Schedule_event",
      "type": "event"
    },
    {
      "anonymous": false,
      "inputs": [
        {
          "indexed": true,
          "name": "caller",
          "type": "address"
        },
        {
          "indexed": true,
          "name": "transaction",
          "type": "address"
        }
      ],
      "name": "Unschedule_event",
      "type": "event"
    },
    {
      "constant": false,
      "inputs": [
        {
          "name": "token",
          "type": "address"
        },
        {
          "name": "recipient",
          "type": "address"
        },
        {
          "name": "amount",
          "type": "uint256"
        }
      ],
      "name": "transfer",
      "outputs": [
        {
          "name": "success",
          "type": "bool"
        }
      ],
      "payable": false,
      "stateMutability": "nonpayable",
      "type": "function"
    },
    {
      "constant": false,
      "inputs": [
        {
          "name": "callAddress",
          "type": "address"
        },
        {
          "name": "callValue",
          "type": "uint256"
        },
        {
          "name": "callData",
          "type": "bytes"
        }
      ],
      "name": "call",
      "outputs": [
        {
          "name": "success",
          "type": "bool"
        },
        {
          "name": "returnData",
          "type": "bytes"
        }
      ],
      "payable": false,
      "stateMutability": "nonpayable",
      "type": "function"
    },
    {
      "constant": false,
      "inputs": [
        {
          "name": "transaction",
          "type": "address"
        }
      ],
      "name": "schedule",
      "outputs": [
        {
          "name": "success",
          "type": "bool"
        }
      ],
      "payable": false,
      "stateMutability": "nonpayable",
      "type": "function"
    },
    {
      "constant": false,
      "inputs": [
        {
          "name": "transaction",
          "type": "address"
        }
      ],
      "name": "unschedule",
      "outputs": [
        {
          "name": "success",
          "type": "bool"
        }
      ],
      "payable": false,
      "stateMutability": "nonpayable",
      "type": "function"
    },
    {
      "constant": false,
      "inputs": [],
      "name": "clear",
      "outputs": [
        {
          "name": "success",
          "type": "bool"
        }
      ],
      "payable": false,
      "stateMutability": "nonpayable",
      "type": "function"
    },
    {
      "constant": true,
      "inputs": [
        {
          "name": "transaction",
          "type": "address"
        }
      ],
      "name": "valid",
      "outputs": [
        {
          "name": "",
          "type": "bool"
        }
      ],
      "payable": false,
      "stateMutability": "view",
      "type": "function"
    },
    {
      "constant": true,
      "inputs": [
        {
          "name": "wallet",
          "type": "address"
        }
      ],
      "name": "getTransactionList",
      "outputs": [
        {
          "name": "",
          "type": "address[]"
        }
      ],
      "payable": false,
      "stateMutability": "view",
      "type": "function"
    },
    {
      "constant": true,
      "inputs": [
        {
          "name": "wallet",
          "type": "address"
        }
      ],
      "name": "getTotalTransactions",
      "outputs": [
        {
          "name": "",
          "type": "uint256"
        }
      ],
      "payable": false,
      "stateMutability": "view",
      "type": "function"
    },
    {
      "constant": true,
      "inputs": [
        {
          "name": "wallet",
          "type": "address"
        },
        {
          "name": "i",
          "type": "uint256"
        }
      ],
      "name": "getTransactionAtIndex",
      "outputs": [
        {
          "name": "",
          "type": "address"
        }
      ],
      "payable": false,
      "stateMutability": "view",
      "type": "function"
    },
    {
      "constant": true,
      "inputs": [
        {
          "name": "transaction",
          "type": "address"
        }
      ],
      "name": "getIndexOf",
      "outputs": [
        {
          "name": "",
          "type": "uint256"
        }
      ],
      "payable": false,
      "stateMutability": "view",
      "type": "function"
    }
  ],
  "bytecode": "0x60806040524360005534801561001457600080fd5b50611ab1806100246000396000f3fe608060405234801561001057600080fd5b50600436106100a95760003560e01c80636dbf2fa0116100715780636dbf2fa014610230578063904a422e14610399578063ac8a260c14610432578063b9d4f0c31461048e578063beabacc8146104e6578063f4c0f4131461056c576100a9565b8063017df522146100ae578063316bef981461010657806343b89c62146101625780634e989a4c146101f057806352efea6e1461020e575b600080fd5b6100f0600480360360208110156100c457600080fd5b81019080803573ffffffffffffffffffffffffffffffffffffffff1690602001909291905050506105c8565b6040518082815260200191505060405180910390f35b6101486004803603602081101561011c57600080fd5b81019080803573ffffffffffffffffffffffffffffffffffffffff16906020019092919050505061074f565b604051808215151515815260200191505060405180910390f35b6101ae6004803603604081101561017857600080fd5b81019080803573ffffffffffffffffffffffffffffffffffffffff16906020019092919080359060200190929190505050610ac4565b604051808273ffffffffffffffffffffffffffffffffffffffff1673ffffffffffffffffffffffffffffffffffffffff16815260200191505060405180910390f35b6101f8610ba0565b6040518082815260200191505060405180910390f35b610216610ba6565b604051808215151515815260200191505060405180910390f35b6103136004803603606081101561024657600080fd5b81019080803573ffffffffffffffffffffffffffffffffffffffff169060200190929190803590602001909291908035906020019064010000000081111561028d57600080fd5b82018360208201111561029f57600080fd5b803590602001918460018302840111640100000000831117156102c157600080fd5b91908080601f016020809104026020016040519081016040528093929190818152602001838380828437600081840152601f19601f820116905080830192505050505050509192919290505050610d91565b604051808315151515815260200180602001828103825283818151815260200191508051906020019080838360005b8381101561035d578082015181840152602081019050610342565b50505050905090810190601f16801561038a5780820380516001836020036101000a031916815260200191505b50935050505060405180910390f35b6103db600480360360208110156103af57600080fd5b81019080803573ffffffffffffffffffffffffffffffffffffffff169060200190929190505050611087565b6040518080602001828103825283818151815260200191508051906020019060200280838360005b8381101561041e578082015181840152602081019050610403565b505050509050019250505060405180910390f35b6104746004803603602081101561044857600080fd5b81019080803573ffffffffffffffffffffffffffffffffffffffff1690602001909291905050506111b0565b604051808215151515815260200191505060405180910390f35b6104d0600480360360208110156104a457600080fd5b81019080803573ffffffffffffffffffffffffffffffffffffffff169060200190929190505050611337565b6040518082815260200191505060405180910390f35b610552600480360360608110156104fc57600080fd5b81019080803573ffffffffffffffffffffffffffffffffffffffff169060200190929190803573ffffffffffffffffffffffffffffffffffffffff1690602001909291908035906020019092919050505061140a565b604051808215151515815260200191505060405180910390f35b6105ae6004803603602081101561058257600080fd5b81019080803573ffffffffffffffffffffffffffffffffffffffff16906020019092919050505061165d565b604051808215151515815260200191505060405180910390f35b6000600160008373ffffffffffffffffffffffffffffffffffffffff1663521eb2736040518163ffffffff1660e01b815260040160206040518083038186803b15801561061457600080fd5b505afa158015610628573d6000803e3d6000fd5b505050506040513d602081101561063e57600080fd5b810190808051906020019092919050505073ffffffffffffffffffffffffffffffffffffffff1673ffffffffffffffffffffffffffffffffffffffff16815260200190815260200160002073__AddressListLib________________________63ab5f89a49091846040518363ffffffff1660e01b8152600401808381526020018273ffffffffffffffffffffffffffffffffffffffff1673ffffffffffffffffffffffffffffffffffffffff1681526020019250505060206040518083038186803b15801561070d57600080fd5b505af4158015610721573d6000803e3d6000fd5b505050506040513d602081101561073757600080fd5b81019080805190602001909291905050509050919050565b60008173ffffffffffffffffffffffffffffffffffffffff1663521eb2736040518163ffffffff1660e01b815260040160206040518083038186803b15801561079757600080fd5b505afa1580156107ab573d6000803e3d6000fd5b505050506040513d60208110156107c157600080fd5b810190808051906020019092919050505073ffffffffffffffffffffffffffffffffffffffff166307779627336040518263ffffffff1660e01b8152600401808273ffffffffffffffffffffffffffffffffffffffff1673ffffffffffffffffffffffffffffffffffffffff16815260200191505060206040518083038186803b15801561084e57600080fd5b505afa158015610862573d6000803e3d6000fd5b505050506040513d602081101561087857600080fd5b81019080805190602001909291905050506108de576040517f08c379a0000000000000000000000000000000000000000000000000000000008152600401808060200182810382526024815260200180611a316024913960400191505060405180910390fd5b600160008373ffffffffffffffffffffffffffffffffffffffff1663521eb2736040518163ffffffff1660e01b815260040160206040518083038186803b15801561092857600080fd5b505afa15801561093c573d6000803e3d6000fd5b505050506040513d602081101561095257600080fd5b810190808051906020019092919050505073ffffffffffffffffffffffffffffffffffffffff1673ffffffffffffffffffffffffffffffffffffffff16815260200190815260200160002073__AddressListLib________________________6390c158cb9091846040518363ffffffff1660e01b8152600401808381526020018273ffffffffffffffffffffffffffffffffffffffff1673ffffffffffffffffffffffffffffffffffffffff1681526020019250505060206040518083038186803b158015610a2157600080fd5b505af4158015610a35573d6000803e3d6000fd5b505050506040513d6020811015610a4b57600080fd5b810190808051906020019092919050505090508015610abf578173ffffffffffffffffffffffffffffffffffffffff163373ffffffffffffffffffffffffffffffffffffffff167f501bc89253dedaa79976a8ee719dad5a769c5613a0e93ff7c4fbadb01e197fee60405160405180910390a35b919050565b6000600160008473ffffffffffffffffffffffffffffffffffffffff1673ffffffffffffffffffffffffffffffffffffffff16815260200190815260200160002073__AddressListLib________________________63033941c19091846040518363ffffffff1660e01b8152600401808381526020018281526020019250505060206040518083038186803b158015610b5d57600080fd5b505af4158015610b71573d6000803e3d6000fd5b505050506040513d6020811015610b8757600080fd5b8101908080519060200190929190505050905092915050565b60005481565b600080339050600160008273ffffffffffffffffffffffffffffffffffffffff1663521eb2736040518163ffffffff1660e01b815260040160206040518083038186803b158015610bf657600080fd5b505afa158015610c0a573d6000803e3d6000fd5b505050506040513d6020811015610c2057600080fd5b810190808051906020019092919050505073ffffffffffffffffffffffffffffffffffffffff1673ffffffffffffffffffffffffffffffffffffffff16815260200190815260200160002073__AddressListLib________________________636c11a8a39091836040518363ffffffff1660e01b8152600401808381526020018273ffffffffffffffffffffffffffffffffffffffff1673ffffffffffffffffffffffffffffffffffffffff1681526020019250505060206040518083038186803b158015610cef57600080fd5b505af4158015610d03573d6000803e3d6000fd5b505050506040513d6020811015610d1957600080fd5b810190808051906020019092919050505091508115610d8d578073ffffffffffffffffffffffffffffffffffffffff163373ffffffffffffffffffffffffffffffffffffffff167f034bc3130a7ffc24d449116d1eaac102b50fc88f2ce34d6c9ce195b2aac92bd860405160405180910390a35b5090565b600060606000339050610da3816111b0565b610e15576040517f08c379a00000000000000000000000000000000000000000000000000000000081526004018080602001828103825260138152602001807f696e76616c6964207472616e73616374696f6e0000000000000000000000000081525060200191505060405180910390fd5b8073ffffffffffffffffffffffffffffffffffffffff1663521eb2736040518163ffffffff1660e01b815260040160206040518083038186803b158015610e5b57600080fd5b505afa158015610e6f573d6000803e3d6000fd5b505050506040513d6020811015610e8557600080fd5b810190808051906020019092919050505073ffffffffffffffffffffffffffffffffffffffff16636dbf2fa08787876040518463ffffffff1660e01b8152600401808473ffffffffffffffffffffffffffffffffffffffff1673ffffffffffffffffffffffffffffffffffffffff16815260200183815260200180602001828103825283818151815260200191508051906020019080838360005b83811015610f3b578082015181840152602081019050610f20565b50505050905090810190601f168015610f685780820380516001836020036101000a031916815260200191505b50945050505050600060405180830381600087803b158015610f8957600080fd5b505af1158015610f9d573d6000803e3d6000fd5b505050506040513d6000823e3d601f19601f820116820180604052506040811015610fc757600080fd5b81019080805190602001909291908051640100000000811115610fe957600080fd5b82810190506020810184811115610fff57600080fd5b815185600182028301116401000000008211171561101c57600080fd5b505092919050505080935081945050508073ffffffffffffffffffffffffffffffffffffffff167facd51e6604fc01f4ae98e6aba564f000fd1bb10c0ee6fc8589d64e5243e4fd0384604051808215151515815260200191505060405180910390a250935093915050565b6060600160008373ffffffffffffffffffffffffffffffffffffffff1673ffffffffffffffffffffffffffffffffffffffff16815260200190815260200160002073__AddressListLib________________________636146e87890916040518263ffffffff1660e01b81526004018082815260200191505060006040518083038186803b15801561111857600080fd5b505af415801561112c573d6000803e3d6000fd5b505050506040513d6000823e3d601f19601f82011682018060405250602081101561115657600080fd5b81019080805164010000000081111561116e57600080fd5b8281019050602081018481111561118457600080fd5b81518560208202830111640100000000821117156111a157600080fd5b50509291905050509050919050565b6000600160008373ffffffffffffffffffffffffffffffffffffffff1663521eb2736040518163ffffffff1660e01b815260040160206040518083038186803b1580156111fc57600080fd5b505afa158015611210573d6000803e3d6000fd5b505050506040513d602081101561122657600080fd5b810190808051906020019092919050505073ffffffffffffffffffffffffffffffffffffffff1673ffffffffffffffffffffffffffffffffffffffff16815260200190815260200160002073__AddressListLib________________________631a65cb959091846040518363ffffffff1660e01b8152600401808381526020018273ffffffffffffffffffffffffffffffffffffffff1673ffffffffffffffffffffffffffffffffffffffff1681526020019250505060206040518083038186803b1580156112f557600080fd5b505af4158015611309573d6000803e3d6000fd5b505050506040513d602081101561131f57600080fd5b81019080805190602001909291905050509050919050565b6000600160008373ffffffffffffffffffffffffffffffffffffffff1673ffffffffffffffffffffffffffffffffffffffff16815260200190815260200160002073__AddressListLib________________________631ecb748690916040518263ffffffff1660e01b81526004018082815260200191505060206040518083038186803b1580156113c857600080fd5b505af41580156113dc573d6000803e3d6000fd5b505050506040513d60208110156113f257600080fd5b81019080805190602001909291905050509050919050565b600080339050611419816111b0565b61148b576040517f08c379a00000000000000000000000000000000000000000000000000000000081526004018080602001828103825260138152602001807f696e76616c6964207472616e73616374696f6e0000000000000000000000000081525060200191505060405180910390fd5b8073ffffffffffffffffffffffffffffffffffffffff1663521eb2736040518163ffffffff1660e01b815260040160206040518083038186803b1580156114d157600080fd5b505afa1580156114e5573d6000803e3d6000fd5b505050506040513d60208110156114fb57600080fd5b810190808051906020019092919050505073ffffffffffffffffffffffffffffffffffffffff1663beabacc88686866040518463ffffffff1660e01b8152600401808473ffffffffffffffffffffffffffffffffffffffff1673ffffffffffffffffffffffffffffffffffffffff1681526020018373ffffffffffffffffffffffffffffffffffffffff1673ffffffffffffffffffffffffffffffffffffffff1681526020018281526020019350505050602060405180830381600087803b1580156115c657600080fd5b505af11580156115da573d6000803e3d6000fd5b505050506040513d60208110156115f057600080fd5b810190808051906020019092919050505091508073ffffffffffffffffffffffffffffffffffffffff167facd51e6604fc01f4ae98e6aba564f000fd1bb10c0ee6fc8589d64e5243e4fd0383604051808215151515815260200191505060405180910390a2509392505050565b6000611668826111b0565b6116bd576040517f08c379a0000000000000000000000000000000000000000000000000000000008152600401808060200182810382526031815260200180611a556031913960400191505060405180910390fd5b8173ffffffffffffffffffffffffffffffffffffffff1663521eb2736040518163ffffffff1660e01b815260040160206040518083038186803b15801561170357600080fd5b505afa158015611717573d6000803e3d6000fd5b505050506040513d602081101561172d57600080fd5b810190808051906020019092919050505073ffffffffffffffffffffffffffffffffffffffff166307779627336040518263ffffffff1660e01b8152600401808273ffffffffffffffffffffffffffffffffffffffff1673ffffffffffffffffffffffffffffffffffffffff16815260200191505060206040518083038186803b1580156117ba57600080fd5b505afa1580156117ce573d6000803e3d6000fd5b505050506040513d60208110156117e457600080fd5b810190808051906020019092919050505061184a576040517f08c379a0000000000000000000000000000000000000000000000000000000008152600401808060200182810382526024815260200180611a316024913960400191505060405180910390fd5b600160008373ffffffffffffffffffffffffffffffffffffffff1663521eb2736040518163ffffffff1660e01b815260040160206040518083038186803b15801561189457600080fd5b505afa1580156118a8573d6000803e3d6000fd5b505050506040513d60208110156118be57600080fd5b810190808051906020019092919050505073ffffffffffffffffffffffffffffffffffffffff1673ffffffffffffffffffffffffffffffffffffffff16815260200190815260200160002073__AddressListLib________________________636c11a8a39091846040518363ffffffff1660e01b8152600401808381526020018273ffffffffffffffffffffffffffffffffffffffff1673ffffffffffffffffffffffffffffffffffffffff1681526020019250505060206040518083038186803b15801561198d57600080fd5b505af41580156119a1573d6000803e3d6000fd5b505050506040513d60208110156119b757600080fd5b810190808051906020019092919050505090508015611a2b578173ffffffffffffffffffffffffffffffffffffffff163373ffffffffffffffffffffffffffffffffffffffff167f034bc3130a7ffc24d449116d1eaac102b50fc88f2ce34d6c9ce195b2aac92bd860405160405180910390a35b91905056fe6d73672073656e646572206d75737420626520612077616c6c65742064656c65676174657472616e73616374696f6e206973206e6f74207363686564756c6564207769746820737570706c6965642077616c6c6574a165627a7a7230582091a03f51df753f13324a97486b2c30fd22722c4fceace486c8ac9a1beef9ae6a0029",
  "source": "pragma solidity ^0.5.0;\n\nimport \"./external/AddressList.sol\";\nimport \"./external/Owned.sol\";\nimport \"./Interfaces.sol\";\n\n/// @title Transaction Delegate\n/// @author Joseph Reed\n/// @dev The goal of this contract is to act as an authority for executing future transactions\ncontract TransactionDelegate is ITransactionDelegate {\n\n    using AddressListLib for AddressListLib.AddressList;          // Import the data structure AddressList\n    uint public blockCreated = block.number;                      // The block the payment delegate was deployed\n    mapping (address => AddressListLib.AddressList) transactions; // The list of future transactions per account\n\n    /// @notice Executes a transfer for the transaction associated with 'msg.sender'\n    /// @param token The token to send for the payment\n    /// @param recipient The recipient of the specified amount of tokens\n    /// @param amount The amount of tokens to send to the recipient\n    /// @return True if the transfer executed successfully\n    function transfer (address token, address payable recipient, uint amount) public returns (bool success) {\n      IFutureTransaction transaction = IFutureTransaction(msg.sender);\n      require(valid(transaction), \"invalid transaction\");\n      success = transaction.wallet().transfer(token, recipient, amount);\n      emit Execute_event (transaction, success);\n    }\n\n    /// @notice Executes a call for the transaction associated with 'msg.sender'\n    /// @param callAddress The address to call\n    /// @param callValue The amount of ether to send with the call\n    /// @param callData The data to send along with the call\n    /// @return True if the call executed successfully. False otherwise.\n    /// @return The data returned from the call\n    function call (address callAddress, uint callValue, bytes memory callData) public returns (bool success, bytes memory returnData) {\n      IFutureTransaction transaction = IFutureTransaction(msg.sender);\n      require(valid(transaction), \"invalid transaction\");\n      (success, returnData) = transaction.wallet().call(callAddress, callValue, callData);\n      emit Execute_event (transaction, success);\n    }\n\n    /// @notice Schedules a transaction. Only callable by a wallet delegate\n    /// @param transaction The transaction contract responsible for holding logic and data about the transaction\n    /// @return True if the transaction was scheduled successfully\n    function schedule (IFutureTransaction transaction) public returns (bool success) {\n      require(transaction.wallet().isDelegate(msg.sender), \"msg sender must be a wallet delegate\");\n      success = transactions[address(transaction.wallet())].add(address(transaction));\n      if(success) emit Schedule_event(msg.sender, transaction);\n    }\n\n    /// @notice Unschedules a transaction. Only callable by a delegate of the wallet associated with the transaction.\n    /// @param transaction The contract responsible for holding logic and data about the transaction\n    /// @return True if the transaction was unscheduled successfully\n    function unschedule (IFutureTransaction transaction) public returns (bool success) {\n      require(valid(transaction), \"transaction is not scheduled with supplied wallet\");\n      require(transaction.wallet().isDelegate(msg.sender), \"msg sender must be a wallet delegate\");\n      success = transactions[address(transaction.wallet())].remove(address(transaction));\n      if(success) emit Unschedule_event(msg.sender, transaction);\n    }\n\n    /// @notice Allows a transaction to unschedule itself\n    /// @return True if the transaction was unscheduled successfully\n    function clear () public returns (bool success) {\n      IFutureTransaction transaction = IFutureTransaction(msg.sender);\n      success = transactions[address(transaction.wallet())].remove(address(transaction));\n      if(success) emit Unschedule_event(msg.sender, transaction);\n    }\n\n    /// @notice Indicates whether a transaction is valid\n    /// @param transaction The transaction to check for validity\n    /// @return True if the transaction wallet list contains the given 'transaction'\n    function valid (IFutureTransaction transaction) public view returns (bool) {\n      return transactions[address(transaction.wallet())].contains(address(transaction));\n    }\n\n    /// @notice Fetches the transactions scheduled for 'wallet'\n    /// @param wallet The wallet to from which to fetch the transactions\n    /// @return The list of transactions associated with 'wallet'\n    function getTransactionList (IDelegatedWallet wallet) public view returns (address[] memory) {\n        return transactions[address(wallet)].getList();\n    }\n\n    /// @notice Fetches the total number of transactions of a given wallet\n    /// @param wallet The wallet from which to fetch the amount of transactions\n    /// @return The number of transactions associated with the 'wallet'\n    function getTotalTransactions (IDelegatedWallet wallet) public view returns (uint) {\n        return transactions[address(wallet)].getLength();\n    }\n\n    /// @notice Fetches a transaction from the provided wallet at a given index\n    /// @param wallet The wallet from which to fetch the transaction\n    /// @param i The index of the transaction to fetch\n    /// @return The transaction at index 'i'\n    function getTransactionAtIndex (IDelegatedWallet wallet, uint i) public view returns (IFutureTransaction) {\n        return IFutureTransaction(transactions[address(wallet)].getValueAt(i));\n    }\n\n    /// @notice Fetches the index of a transaction from a provided wallet\n    /// @param transaction The transaction from which to retrieve the index\n    /// @return The index of the provided 'transaction'\n    function getIndexOf (IFutureTransaction transaction) public view returns (uint) {\n      return transactions[address(transaction.wallet())].getIndexOf(address(transaction));\n    }\n\n    event Execute_event (IFutureTransaction indexed transaction, bool success);\n    event Schedule_event (address indexed caller, IFutureTransaction indexed transaction);\n    event Unschedule_event (address indexed caller, IFutureTransaction indexed transaction);\n\n}\n",
  "sourcePath": "/home/joe/Documents/git/chicobitcoinjoe/recurring-transactions/contracts/TransactionDelegate.sol",
  "compiler": {
    "name": "solc",
    "version": "0.5.8+commit.23d335f2.Emscripten.clang"
  },
  "schemaVersion": "3.0.16",
  "updatedAt": "2019-11-10T19:17:20.610Z",
  "devdoc": {
    "author": "Joseph Reed",
    "details": "The goal of this contract is to act as an authority for executing future transactions",
    "methods": {
      "call(address,uint256,bytes)": {
        "params": {
          "callAddress": "The address to call",
          "callData": "The data to send along with the call",
          "callValue": "The amount of ether to send with the call"
        },
        "return": "True if the call executed successfully. False otherwise.The data returned from the call"
      },
      "clear()": {
        "return": "True if the transaction was unscheduled successfully"
      },
      "getIndexOf(address)": {
        "params": {
          "transaction": "The transaction from which to retrieve the index"
        },
        "return": "The index of the provided 'transaction'"
      },
      "getTotalTransactions(address)": {
        "params": {
          "wallet": "The wallet from which to fetch the amount of transactions"
        },
        "return": "The number of transactions associated with the 'wallet'"
      },
      "getTransactionAtIndex(address,uint256)": {
        "params": {
          "i": "The index of the transaction to fetch",
          "wallet": "The wallet from which to fetch the transaction"
        },
        "return": "The transaction at index 'i'"
      },
      "getTransactionList(address)": {
        "params": {
          "wallet": "The wallet to from which to fetch the transactions"
        },
        "return": "The list of transactions associated with 'wallet'"
      },
      "schedule(address)": {
        "params": {
          "transaction": "The transaction contract responsible for holding logic and data about the transaction"
        },
        "return": "True if the transaction was scheduled successfully"
      },
      "transfer(address,address,uint256)": {
        "params": {
          "amount": "The amount of tokens to send to the recipient",
          "recipient": "The recipient of the specified amount of tokens",
          "token": "The token to send for the payment"
        },
        "return": "True if the transfer executed successfully"
      },
      "unschedule(address)": {
        "params": {
          "transaction": "The contract responsible for holding logic and data about the transaction"
        },
        "return": "True if the transaction was unscheduled successfully"
      },
      "valid(address)": {
        "params": {
          "transaction": "The transaction to check for validity"
        },
        "return": "True if the transaction wallet list contains the given 'transaction'"
      }
    },
    "title": "Transaction Delegate"
  },
  "userdoc": {
    "methods": {
      "call(address,uint256,bytes)": {
        "notice": "Executes a call for the transaction associated with 'msg.sender'"
      },
      "clear()": {
        "notice": "Allows a transaction to unschedule itself"
      },
      "getIndexOf(address)": {
        "notice": "Fetches the index of a transaction from a provided wallet"
      },
      "getTotalTransactions(address)": {
        "notice": "Fetches the total number of transactions of a given wallet"
      },
      "getTransactionAtIndex(address,uint256)": {
        "notice": "Fetches a transaction from the provided wallet at a given index"
      },
      "getTransactionList(address)": {
        "notice": "Fetches the transactions scheduled for 'wallet'"
      },
      "schedule(address)": {
        "notice": "Schedules a transaction. Only callable by a wallet delegate"
      },
      "transfer(address,address,uint256)": {
        "notice": "Executes a transfer for the transaction associated with 'msg.sender'"
      },
      "unschedule(address)": {
        "notice": "Unschedules a transaction. Only callable by a delegate of the wallet associated with the transaction."
      },
      "valid(address)": {
        "notice": "Indicates whether a transaction is valid"
      }
    }
  }
}