{
  "contractName": "TransactionRequestFactory",
  "abi": [
    {
      "constant": true,
      "inputs": [],
      "name": "blockCreated",
      "outputs": [
        {
          "name": "",
          "type": "uint256"
        }
      ],
      "payable": false,
      "stateMutability": "view",
      "type": "function"
    },
    {
      "constant": true,
      "inputs": [],
      "name": "EAC",
      "outputs": [
        {
          "name": "",
          "type": "address"
        }
      ],
      "payable": false,
      "stateMutability": "view",
      "type": "function"
    },
    {
      "constant": true,
      "inputs": [],
      "name": "requestsCreated",
      "outputs": [
        {
          "name": "",
          "type": "uint256"
        }
      ],
      "payable": false,
      "stateMutability": "view",
      "type": "function"
    },
    {
      "constant": true,
      "inputs": [],
      "name": "owner",
      "outputs": [
        {
          "name": "",
          "type": "address"
        }
      ],
      "payable": false,
      "stateMutability": "view",
      "type": "function"
    },
    {
      "constant": true,
      "inputs": [],
      "name": "donationWallet",
      "outputs": [
        {
          "name": "",
          "type": "address"
        }
      ],
      "payable": false,
      "stateMutability": "view",
      "type": "function"
    },
    {
      "constant": false,
      "inputs": [
        {
          "name": "_newOwner",
          "type": "address"
        }
      ],
      "name": "transferOwnership",
      "outputs": [],
      "payable": false,
      "stateMutability": "nonpayable",
      "type": "function"
    },
    {
      "inputs": [
        {
          "name": "_EAC",
          "type": "address"
        }
      ],
      "payable": false,
      "stateMutability": "nonpayable",
      "type": "constructor"
    },
    {
      "anonymous": false,
      "inputs": [
        {
          "indexed": true,
          "name": "caller",
          "type": "address"
        },
        {
          "indexed": false,
          "name": "txRequest",
          "type": "address"
        }
      ],
      "name": "TransactionRequest_event",
      "type": "event"
    },
    {
      "anonymous": false,
      "inputs": [
        {
          "indexed": false,
          "name": "reasons",
          "type": "bool[6]"
        }
      ],
      "name": "InvalidRequest_event",
      "type": "event"
    },
    {
      "constant": false,
      "inputs": [
        {
          "name": "wallet",
          "type": "address"
        },
        {
          "name": "options",
          "type": "uint256[7]"
        }
      ],
      "name": "createTransactionRequest",
      "outputs": [
        {
          "name": "",
          "type": "address"
        }
      ],
      "payable": true,
      "stateMutability": "payable",
      "type": "function"
    },
    {
      "constant": false,
      "inputs": [
        {
          "name": "newDonationWallet",
          "type": "address"
        }
      ],
      "name": "setDonationWallet",
      "outputs": [],
      "payable": false,
      "stateMutability": "nonpayable",
      "type": "function"
    }
  ],
  "bytecode": "0x608060405243600355600060045534801561001957600080fd5b50604051602080610b228339810180604052602081101561003957600080fd5b8101908080519060200190929190505050336000806101000a81548173ffffffffffffffffffffffffffffffffffffffff021916908373ffffffffffffffffffffffffffffffffffffffff16021790555080600160006101000a81548173ffffffffffffffffffffffffffffffffffffffff021916908373ffffffffffffffffffffffffffffffffffffffff16021790555033600260006101000a81548173ffffffffffffffffffffffffffffffffffffffff021916908373ffffffffffffffffffffffffffffffffffffffff16021790555050610a068061011c6000396000f3fe60806040526004361061007b5760003560e01c80637dd1da7f1161004e5780637dd1da7f146102195780638da5cb5b14610244578063e7b94df41461029b578063f2fde38b146102f25761007b565b80634987cf8b146100805780634e989a4c146101465780635a96cdd7146101715780636cf48a55146101c2575b600080fd5b610104600480360361010081101561009757600080fd5b81019080803573ffffffffffffffffffffffffffffffffffffffff1690602001909291908060e001906007806020026040519081016040528092919082600760200280828437600081840152601f19601f8201169050808301925050505050509192919290505050610343565b604051808273ffffffffffffffffffffffffffffffffffffffff1673ffffffffffffffffffffffffffffffffffffffff16815260200191505060405180910390f35b34801561015257600080fd5b5061015b61071a565b6040518082815260200191505060405180910390f35b34801561017d57600080fd5b506101c06004803603602081101561019457600080fd5b81019080803573ffffffffffffffffffffffffffffffffffffffff169060200190929190505050610720565b005b3480156101ce57600080fd5b506101d7610860565b604051808273ffffffffffffffffffffffffffffffffffffffff1673ffffffffffffffffffffffffffffffffffffffff16815260200191505060405180910390f35b34801561022557600080fd5b5061022e610886565b6040518082815260200191505060405180910390f35b34801561025057600080fd5b5061025961088c565b604051808273ffffffffffffffffffffffffffffffffffffffff1673ffffffffffffffffffffffffffffffffffffffff16815260200191505060405180910390f35b3480156102a757600080fd5b506102b06108b1565b604051808273ffffffffffffffffffffffffffffffffffffffff1673ffffffffffffffffffffffffffffffffffffffff16815260200191505060405180910390f35b3480156102fe57600080fd5b506103416004803603602081101561031557600080fd5b81019080803573ffffffffffffffffffffffffffffffffffffffff1690602001909291905050506108d7565b005b6000808260066007811061035357fe5b602002015190508034146103b2576040517f08c379a00000000000000000000000000000000000000000000000000000000081526004018080602001828103825260228152602001806109b96022913960400191505060405180910390fd5b6000606482816103be57fe5b049050600081830390506103d0610973565b60405180606001604052808873ffffffffffffffffffffffffffffffffffffffff1673ffffffffffffffffffffffffffffffffffffffff168152602001600260009054906101000a900473ffffffffffffffffffffffffffffffffffffffff1673ffffffffffffffffffffffffffffffffffffffff1673ffffffffffffffffffffffffffffffffffffffff1681526020013373ffffffffffffffffffffffffffffffffffffffff1673ffffffffffffffffffffffffffffffffffffffff16815250905061049b610995565b604051806101800160405280858152602001848152602001886000600781106104c057fe5b60200201518152602001886001600781106104d757fe5b60200201518152602001886002600781106104ee57fe5b60200201518152602001600281526020018860036007811061050c57fe5b602002015181526020018860046007811061052357fe5b602002015181526020018860056007811061053a57fe5b6020020151815260200160008152602001600081526020018681525090506000600160009054906101000a900473ffffffffffffffffffffffffffffffffffffffff1673ffffffffffffffffffffffffffffffffffffffff1663d7ceab4c3485856040518463ffffffff1660e01b81526004018083600360200280838360005b838110156105d55780820151818401526020810190506105ba565b5050505090500182600c60200280838360005b838110156106035780820151818401526020810190506105e8565b505050509050018060200182810382526000815260200160200193505050506020604051808303818588803b15801561063b57600080fd5b505af115801561064f573d6000803e3d6000fd5b50505050506040513d602081101561066657600080fd5b8101908080519060200190929190505050905060008190506004600081548092919060010191905055503373ffffffffffffffffffffffffffffffffffffffff167f9e798a4b3534835875edf7be1aad5733b31da2bcca7ad847d8e79a0889ac2d0582604051808273ffffffffffffffffffffffffffffffffffffffff1673ffffffffffffffffffffffffffffffffffffffff16815260200191505060405180910390a28097505050505050505092915050565b60035481565b6000809054906101000a900473ffffffffffffffffffffffffffffffffffffffff1673ffffffffffffffffffffffffffffffffffffffff163373ffffffffffffffffffffffffffffffffffffffff161461077957600080fd5b600073ffffffffffffffffffffffffffffffffffffffff168173ffffffffffffffffffffffffffffffffffffffff16141561081c576040517f08c379a00000000000000000000000000000000000000000000000000000000081526004018080602001828103825260188152602001807f6e65772077616c6c65742063616e6e6f7420626520307830000000000000000081525060200191505060405180910390fd5b80600260006101000a81548173ffffffffffffffffffffffffffffffffffffffff021916908373ffffffffffffffffffffffffffffffffffffffff16021790555050565b600160009054906101000a900473ffffffffffffffffffffffffffffffffffffffff1681565b60045481565b6000809054906101000a900473ffffffffffffffffffffffffffffffffffffffff1681565b600260009054906101000a900473ffffffffffffffffffffffffffffffffffffffff1681565b6000809054906101000a900473ffffffffffffffffffffffffffffffffffffffff1673ffffffffffffffffffffffffffffffffffffffff163373ffffffffffffffffffffffffffffffffffffffff161461093057600080fd5b806000806101000a81548173ffffffffffffffffffffffffffffffffffffffff021916908373ffffffffffffffffffffffffffffffffffffffff16021790555050565b6040518060600160405280600390602082028038833980820191505090505090565b604051806101800160405280600c9060208202803883398082019150509050509056fe6d73672076616c75652073686f756c6420657175616c20746865206465706f736974a165627a7a72305820804cdc0d44d8b0b9036e79175e2c417151428640be4492c018f838db0aac3fd00029",
  "source": "pragma solidity ^0.5.0;\n\nimport \"./external/RequestFactoryInterface.sol\";\nimport \"./Interfaces.sol\";\n\n/// @title Transaction Request Factory\n/// @author Joseph Reed\n/// @dev This contract creates a request to execute a future transaction\ncontract TransactionRequestFactory is ITransactionRequestFactory, Owned {\n\n    RequestFactoryInterface public EAC;       // The Ethereum Alarm Clock creates decentralized alarms\n    address payable public donationWallet;    // The wallet that collects donations from scheduled transactions\n    uint public blockCreated = block.number;  // The block this factory was created\n    uint public requestsCreated = 0;          // Tracks the number of requests created by this factory\n\n    /// @notice Constructor to create a future transaction factory\n    /// @param _EAC The contract responsible for deploying decentralized alarms\n    constructor (RequestFactoryInterface _EAC) public {\n        EAC = _EAC;\n        donationWallet = msg.sender;\n    }\n\n    function createTransactionRequest (address wallet, uint[7] memory options) public payable returns (ITransactionRequest) {\n        uint deposit = options[6];\n        require(msg.value == deposit, \"msg value should equal the deposit\");\n        uint donation = deposit / 100;\n        uint timeBounty = deposit - donation;\n\n        address[3] memory addressOptions = [\n            wallet,         // Owner of the transaction request and the change address\n            donationWallet, // The donation is sent to the donation wallet\n            msg.sender      // The contract to call at execution\n        ];\n\n        uint[12] memory uintOptions = [\n            donation,       // A donation that goes to the donation wallet\n            timeBounty,     // The bounty for the account that triggers this transaction\n            options[0],     // The claim window size\n            options[1],     // The freeze interval duration\n            options[2],     // The reserved window size\n            2,              // 1 = use block based scheduling, 2 = Use timestamp based scheduling\n            options[3],     // The size of the execution window\n            options[4],     // The start of the execution window\n            options[5],     // The amount of gas to call the transaction with\n            0,              // The amount of ether to be sent with the transaction\n            0,              // The minimum gas price for the transaction when called\n            deposit         // The required deposit by the claimer\n        ];\n\n        address eacTxRequest = EAC.createValidatedRequest.value(msg.value)(addressOptions, uintOptions, \"\");\n        ITransactionRequest txRequest = ITransactionRequest(eacTxRequest);\n        requestsCreated++;\n        emit TransactionRequest_event (msg.sender, txRequest);\n        return txRequest;\n    }\n\n    function setDonationWallet (address payable newDonationWallet) public onlyOwner {\n      require(newDonationWallet != address(0x0), \"new wallet cannot be 0x0\");\n      donationWallet = newDonationWallet;\n    }\n\n    event TransactionRequest_event(address indexed caller, ITransactionRequest txRequest);\n    event InvalidRequest_event (bool[6] reasons);\n\n}\n",
  "sourcePath": "/home/joe/Documents/git/chicobitcoinjoe/recurring-transactions/contracts/TransactionRequestFactory.sol",
  "compiler": {
    "name": "solc",
    "version": "0.5.8+commit.23d335f2.Emscripten.clang"
  },
  "schemaVersion": "3.0.16",
  "updatedAt": "2019-11-10T19:17:20.615Z",
  "devdoc": {
    "author": "Joseph Reed",
    "details": "This contract creates a request to execute a future transaction",
    "methods": {
      "constructor": {
        "params": {
          "_EAC": "The contract responsible for deploying decentralized alarms"
        }
      }
    },
    "title": "Transaction Request Factory"
  },
  "userdoc": {
    "methods": {
      "constructor": "Constructor to create a future transaction factory"
    }
  }
}